:100000000C9455060C949C060C949C060C949C062F
:100010000C949C060C949C060C949C060C949C06D8
:100020000C949C060C949C060C949C060C94A6299B
:100030000C94552A0C949D1A0C949C060C949C06C6
:100040000C949C060C949C060C949C060C94111B1E
:100050000C949C060C949C060C949C060C949C0698
:100060000C949C060C949C060C949C060C949C0688
:100070000C949C0634083608410838083A083C08B5
:100080003E084008430845084708520849084B08FD
:100090004D084F085108540876107610A810A81083
:1000A000E61006117612761248117612F511F51146
:1000B0006612761276126F120212021202120212E7
:1000C0000212021202120212021202120212021290
:1000D00002120212021202121312211228122F12FD
:1000E000391205130513171317130E1317131713CC
:1000F0001713051305131313171317131313C22A1A
:10010000E92ADB2BE92ADB2B352B582BDB2BAE2BFB
:10011000BD2BE700100036000E000F001200270074
:100120002D00E600370038003300340013002F00A4
:100130002E000151E50000002800310030000000D1
:100140002A000151E000E00004002B001400165CBE
:100150001E00E20000001D0016001A0008001F002B
:100160002000E3001B000700090015001700210014
:1001700022002C00060019000A001C0018002300B1
:1001800024000000050011000B000D000C002500EC
:100190002600010001004D004A004B0047004300CB
:1001A000440001004E00510050004F004800520032
:1001B00045000100010000000100010001000000F5
:1001C0004C00010001000100500039000100005CFA
:1001D0003A0001000000AA005100520001003B005B
:1001E0003C000100A9004F000100010001003D009A
:1001F0003E000100A80001000100010001003F00D5
:10020000400000000100145C0100010046004100B4
:10021000420044454255473A20656E61626C656410
:100220002E0A000A0025303862003A2000253032BC
:1002300058000A722F632030313233343536370A92
:10024000000A002530325820006B6579626F6172B8
:10025000645F7265706F72743A20000A0025303254
:1002600058006B6579626F6172645F7365745F6C6F
:1002700065643A2000646F6E652E0A00626F6F74C9
:100280006D61676963207363616E3A202E2E2E20A4
:1002900000290A002575002F002575005D2800251E
:1002A00064002000256400200025640020002564EF
:1002B000007C0025303258006D6F7573656B657971
:1002C000205B62746E7C782079207620685D2872CD
:1002D00065702F61636C293A205B006D6B5F7768F6
:1002E00065656C5F74696D655F746F5F6D617820C3
:1002F0003D2025640A006D6B5F776865656C5F6DF6
:1003000061785F7370656564203D2025640A006D27
:100310006B5F74696D655F746F5F6D6178203D2000
:1003200025640A006D6B5F6D61785F73706565644D
:10033000203D2025640A006D6B5F696E74657276DE
:10034000616C203D2025640A006D6B5F64656C6103
:1003500079203D2025640A006D6B5F776865656CC8
:100360005F74696D655F746F5F6D6178203D2025F6
:10037000640A006D6B5F776865656C5F6D61785FBF
:100380007370656564203D2025640A006D6B5F74A1
:10039000696D655F746F5F6D6178203D2025640A2B
:1003A000006D6B5F6D61785F7370656564203D20E3
:1003B00025640A006D6B5F696E74657276616C20EE
:1003C0003D2025640A006D6B5F64656C6179203D9A
:1003D0002025640A000A00257500363A20776865F2
:1003E000656C5F74696D655F746F5F6D61783A20ED
:1003F000000A00257500353A20776865656C5F6DE9
:1004000061785F73706565643A20000A00257500A5
:10041000343A2074696D655F746F5F6D61783A205E
:10042000000A00257500333A206D61785F737065AE
:1004300065643A20000A00257500323A20696E741E
:10044000657276616C286D73293A20000A00257563
:1004500000313A2064656C6179282A31306D732946
:100460003A20000A092D2056616C756573202D0A0B
:10047000004D3E004D25643E20003F007365742012
:1004800064656661756C740A00433E200077686598
:1004900072652064656C74613A20637572736F7263
:1004A0003D25642C20776865656C3D25640A53659D
:1004B0006520687474703A2F2F656E2E77696B69AA
:1004C00070656469612E6F72672F77696B692F4D54
:1004D0006F7573655F6B6579730A000A092D204D8E
:1004E0006F7573656B6579202D0A4553432F713AFB
:1004F00009717569740A313A0964656C6179282A51
:1005000031306D73290A323A09696E746572766109
:100510006C286D73290A333A096D61785F737065D1
:1005200065640A343A0974696D655F746F5F6D6163
:10053000780A353A09776865656C5F6D61785F7335
:10054000706565640A363A09776865656C5F746939
:100550006D655F746F5F6D61780A0A703A09707239
:10056000696E742076616C7565730A643A09736507
:10057000742064656661756C74730A75703A092B32
:10058000310A646F776E3A092D310A706775703AD7
:10059000092B31300A7067646F776E3A092D31305C
:1005A0000A0A7370656564203D2064656C7461207F
:1005B0002A206D61785F7370656564202A20287237
:1005C0006570656174202F2074696D655F746F5F5D
:1005D0006D6178290A003F004D3E2000433E200017
:1005E0004C25640A0074696D65725F7265616433DD
:1005F0003228293A202530346C580A006B6579621C
:100600006F6172645F69646C653A2025580A006BFB
:100610006579626F6172645F70726F746F636F6C23
:100620003A2025580A00686F73745F6B6579626FB2
:100630006172645F6C65647328293A2025580A004A
:100640000A092D20537461747573202D0A004743E5
:10065000433A20342E392E32204156522D4C4942F5
:10066000433A20312E382E3073766E204156525F39
:10067000415243483A2061767233350A004F505454
:10068000494F4E533A204C55464120424F4F544D0E
:1006900041474943204D4F5553454B4559204558F7
:1006A0005452414B455920434F4E534F4C452043E4
:1006B0004F4D4D414E4420343039360A00425549A1
:1006C0004C443A2022302E362E3330332D31332D08
:1006D0006738306464623322202830363A31343A45
:1006E0003036204665622032362032303139290AD0
:1006F000005649443A2030784645454428544D4BED
:1007000029205049443A2030783634363428416C18
:100710007073363429205645523A203078303030C4
:10072000310A00444553433A20544D4B206B6579C0
:10073000626F617264206669726D776172652066AE
:100740006F7220416C707336340A000A092D2056EE
:10075000657273696F6E202D0A000A092D20436FA0
:100760006E736F6C65202D0A4553432F713A0971E2
:100770007569740A6D3A096D6F7573656B65790AF1
:10078000000A092D204D61676963202D0A443A094A
:100790004465627567204D65737361676520546FAA
:1007A00067676C650A583A094D617472697820442C
:1007B00065627567204D6F646520546F67676C656F
:1007C000202D2053686F77206B6579707265737385
:1007D000657320696E206D61747269782067726933
:1007E000640A4B3A094B6579626F61726420446513
:1007F00062756720546F67676C65202D2053686FA2
:1008000077206B65797072657373207265706F7293
:10081000740A4D3A094465627567204D6F757365BA
:1008200020546F67676C650A563A0956657273699A
:100830006F6E0A533A095374617475730A433A0927
:10084000416374697661746520436F6E736F6C6584
:10085000204D6F64650A46312D4631303A09537791
:100860006974636820746F204C6179657220302D43
:10087000392028463130203D204C30290A302D398E
:100880003A0953776974636820746F204C61796505
:100890007220302D390A47524156453A095377693B
:1008A00074636820746F204C617965722030202851
:1008B000616C7465726E617465290A423A094A7501
:1008C0006D7020746F20426F6F746C6F616465721D
:1008D0000A4553433A094A756D7020746F20426F80
:1008E0006F746C6F616465722028616C7465726EE0
:1008F000617465290A453A095072696E742045454C
:1009000050524F4D2053657474696E67730A425399
:10091000504143453A09436C656172204545505248
:100920004F4D0A000A002575002E6E6B726F3A203B
:10093000000A002575002E737761705F6261636B3A
:10094000736C6173685F6261636B73706163653A56
:1009500020000A002575002E737761705F67726151
:1009600076655F6573633A20000A002575002E6E78
:100970006F5F6775693A20000A002575002E73774E
:1009800061705F72616C745F726775693A20000A0A
:10099000002575002E737761705F6C616C745F6CFD
:1009A0006775693A20000A002575002E636170732F
:1009B0006C6F636B5F746F5F636F6E74726F6C3AB2
:1009C00020000A002575002E737761705F636F6EDB
:1009D00074726F6C5F636170736C6F636B3A20004D
:1009E0000A0025303258006B65796D61705F636F66
:1009F0006E6669672E7261773A20000A00257500DD
:100A00002E6D6F7573653A20000A002575002E6BF8
:100A10006579626F6172643A20000A002575002EC4
:100A20006D61747269783A20000A002575002E65A0
:100A30006E61626C653A20000A002530325800640D
:100A4000656275675F636F6E6669672E7261773A7C
:100A500020000A0025750064656661756C745F6C22
:100A6000617965723A20003F000A6D6F7573653ACF
:100A7000206F66660A000A6D6F7573653A206F6EA7
:100A80000A000A6B6579626F6172643A206F66666C
:100A90000A000A6B6579626F6172643A206F6E0AB0
:100AA000000A6D61747269783A206F66660A000AFE
:100AB0006D61747269783A206F6E0A000A6465622B
:100AC00075673A206F66660A000A64656275673A60
:100AD000206F6E0A000A0A4A756D70696E6720748D
:100AE0006F20626F6F746C6F616465722E2E2E20A2
:100AF00000433E2000436C656172696E6720454586
:100B000050524F4D0A006565636F6E6669673A0A19
:100B1000005B735D004B6579626F61726420737472
:100B20006172742E0A005B575D005B535D005B527F
:100B30005D000403300000000E0341006C007000F3
:100B40007300360034000000080354004D004B00D1
:100B500000000403090409025B00030100A0FA0974
:100B600004000001030101000921110100012240DC
:100B7000000705810308000A0904010001030000C1
:100B800000092111010001228500070582032000D0
:100B90000A090402000203000000092111010001FA
:100BA000222200070583032000010705030320001C
:100BB000011201100100000008EDFE646401000153
:100BC0000203010631FF0974A1010975150026FF12
:100BD000009520750881020976150026FF009520F2
:100BE00075089102C005010902A10185020901A150
:100BF00000050919012905150025019505750181D3
:100C0000029501750381010501093009311581251E
:100C10007F95027508810609381581257F95017534
:100C2000088106050C0A38021581257F9501750893
:100C30008106C0C005010980A101850316010026B7
:100C400003001A81002A8300751095018100C005F8
:100C50000C0901A1018504160100269C021A01005D
:100C60002A9C02751095018100C005010906A101A9
:100C7000050719E029E7150025019508750181028E
:100C8000950175088101050819012905950575016A
:100C900091029501750391010507190029FF1500BF
:100CA00026FF00950675088100C011241FBECFEFF6
:100CB000D4E0DEBFCDBF04B603FE27C080910E0294
:100CC00090910F02A0911002B09111028730904BC9
:100CD000A740B04BD1F410920E0210920F02109266
:100CE00010021092110214BE84B7877F84BF0FB622
:100CF000F894A895809160008861809360001092BC
:100D000060000FBEE0E0F8E3099511E0A0E0B1E07B
:100D1000EAE3F9E502C005900D92AC33B107D9F7CB
:100D200022E0ACE3B1E001C01D92AE30B207E1F7C2
:100D30000E94DF260C949B2C0C940000FF93EF93F1
:100D4000E0913C01F0913D01309709F00995EF9158
:100D5000FF910895FC018591803011F0EFDFFBCF0A
:100D60000895FF27E0E230E247FF0CC0419597FF6E
:100D700009C0EDE26095709580959095611D711D9B
:100D8000811D911D27FF02C0219530E350E2AA2763
:100D9000660F771F881F991FAA1FA41710F0A41BA6
:100DA00063955A95A9F7AA3008F0A95FA05DAF93A3
:100DB000F395611571058105910541F7ED3211F447
:100DC000EF93F395F21718F43F93F395FBCF8F91C0
:100DD000B5DFFA95E1F70895E991F99185918030B1
:100DE00021F0853219F0AADFF9CF089520E0E894C8
:100DF00055915532C1F3503311F4689455915A33DB
:100E000048F4505390F3220F022E220F220F200D90
:100E1000250FF4CF0EF4219589919991533619F34A
:100E2000533729F1533559F1BC0188279927E894A4
:100E30005C3621F48991999168945591543639F42E
:100E400046EF7EF077FF0DC08FEF9FEF0AC055375A
:100E50004AE039F0583540E121F0523642E009F0DD
:100E60000895FF93EF937DDFEF91FF91B7CFFF934D
:100E7000EF93FC0181918030B9F360DFFBCFFF93EA
:100E8000EF9368DFF1CFDF93CF93CDB7DEB7259631
:100E9000A3DFCF91DF91089581FF03C03D9A459A6A
:100EA00008953D98459808953D9A459A2FEF89E613
:100EB00098E1215080409040E1F700C000003D984B
:100EC00045980C94880B81E0089581E008950C9476
:100ED00065070E948619811102C00E940A1A0C94AB
:100EE00054070C948A0B08950E94F5120E94730710
:100EF0002FEF84E39CE0215080409040E1F700C058
:100F000000000C94371BFF920F931F93CF93DF9336
:100F10008C01FC01C081D18180916701811113C0D6
:100F20008281882349F0CE010E943F18F82E682F55
:100F3000CE010E94E21704C0CE010E941218F82EC2
:100F4000BE018F2D04C0CE010E943F18BE010E9439
:100F50000809EC01B8010E946707882309F44DC114
:100F6000C73DFCE5DF0709F4AFC0B0F4C531ECE5DF
:100F7000DE0768F4C230FCE5DF0708F053C0C11596
:100F80008CE5D80701F1C130DC4529F129C1C63112
:100F9000DC4509F4FEC024C1CC3D8CE5D80791F1B5
:100FA00050F4C83DFCE5DF0709F4B1C0C93DDC459C
:100FB00009F4D4C015C1CD3DECE5DE0751F1CE3DBD
:100FC000DC45C1F00DC1F8018281882309F415C107
:100FD0000E94740712C1F8018281882309F40DC1AF
:100FE0008091DD0181608093DD0182E192E00E94C9
:100FF000AA0603C1F8018281882309F4FEC00E9479
:101000000A1AFBC0F8018281882309F4F6C080E047
:1010100006C0F8018281882309F4EFC082E00E94B3
:101020008727EBC0F8018281882309F4DEC00E9483
:101030008619811102C00E940A1A0E94A31990E029
:10104000909300028093FF01FE01E350FC45E231E2
:10105000F10530F4E65CFF4F8091FF010C943F2CCA
:101060008091FF01816027C0826025C0846023C019
:10107000806121C080621FC080641DC080681BC069
:101080008460886018C08E7F16C08D7F14C08B7FEF
:1010900012C08F7E10C08F7D0EC08F7B0CC08F77EB
:1010A0000AC08B7F877F07C087FB222720F991E04A
:1010B000922790FB87F98093FF018091FF010E94A6
:1010C000A7190E94F51299C0F8018281882351F076
:1010D000109243010E94CF1A9093400180933F01E8
:1010E00082E022C08091430181110FC080913F01B5
:1010F000909140010E94E71A883C910530F486E205
:101100000E94910E86E20E94CA0F82E024C0F8017C
:101110008281882361F0109244010E94CF1A90933B
:1011200042018093410180E20E94321066C08091AA
:10113000440181110FC080914101909142010E94B0
:10114000E71A883C910530F487E20E94910E87E20D
:101150000E94CA0F80E20E9439104FC0F8018281BC
:101160008111D9CF809144018111F4CF8091410147
:10117000909142010E94E71A883C910558F780E25D
:101180000E94391088E20E94910E88E20E94CA0FE4
:1011900034C00E94BF18282FF801828140910001BD
:1011A00050910101882379F02A7A91E009F490E0C6
:1011B00090933E01911102C069E201C065E3CA014A
:1011C0000E943E1A0AC080913E01811102C069E26C
:1011D00001C065E3CA010E94401A0E940B190DC0AC
:1011E00081E08093430180934401C801DF91CF9156
:1011F0001F910F91FF900C94630780E0DF91CF91D6
:101200001F910F91FF90089580E090E00895089558
:10121000E82FF0E083E0EE0FFF1F8A95E1F7E70F7C
:10122000F11D93E0EE0FFF1F9A95E1F7E60FF11D18
:10123000EE0FFF1FEE5EFE4F859194910895880F8B
:10124000991FFC01ED5DFD4F859194910895CF9319
:10125000DF930E9408090E94E80AEC01811520E54D
:10126000920708F03FC0811530E4930708F02AC1C7
:10127000883E910500F5803E910508F0A5C1883AA9
:10128000910570F4853A910508F0A4C0813091056C
:1012900009F49AC108F44BC1049708F095C147C1FD
:1012A0008F3B910508F4A1C0803C910508F43FC133
:1012B000805C9109F9C0C11580E2D80758F4C115C6
:1012C00021E0D20708F080C1C03FD10508F42FC14A
:1012D000D0657AC1C11530E3D30708F0E9C0CE016B
:1012E0009F70E2C0C11585E5D80708F047C0C11559
:1012F00024E5D20708F0FFC0C11532E5D30718F581
:10130000C11581E5D80708F0E0C02C2F237081E0DB
:1013100090E002C0880F991F2A95E2F79C689E0111
:10132000F4E036952795FA95E1F72370922BCF706C
:10133000C695C695D0E0A5E0CC0FDD1FAA95E1F7D4
:10134000C82BD92B41C12C2F26952695CE01837011
:101350009927C115D34508F0BDC030E075E0220FD4
:10136000331F7A95E1F7C1E0D0E002C0CC0FDD1F5A
:101370008A95E2F7C22BD32BDC6826C1C11589E51B
:10138000D807A0F4C11528E5D20708F0B9C0C115E7
:1013900036E5D30708F0CBC08C2F0E94650B8F7108
:1013A000C82FD0E0DC2FCC27D0620EC1C1158AE552
:1013B000D80708F4AAC0CE0190568115904208F0D3
:1013C000B6C08D2F8F710E94650BDD27D0628F71A3
:1013D000D82BFAC0853A910509F4ACC0863A91053C
:1013E00009F0ABC0C2E8D0E4EFC0883A910509F437
:1013F000A7C0893A910509F4A6C08A3A910509F473
:10140000A5C08B3A910509F4A4C08C3A910509F462
:10141000A3C08B3B910509F4A2C08C3B910509F454
:10142000A1C08D3A910509F4A0C0803B910509F453
:101430009FC08E3A910509F49EC08F3A910509F438
:101440009DC0813B910509F49CC0823B910509F444
:101450009BC0833B910509F49AC0843B910509F434
:1014600099C0853B910509F498C0863B910509F424
:1014700097C0873B910509F496C0883B910509F414
:1014800095C0893B910509F494C08D3B910509F401
:1014900093C08E3B910509F492C08A3B910509F4F3
:1014A00091C0C0E0D4E490C00E941F09EC018CC040
:1014B000CE019927D3FF03C0EC01D86C85C0EC01A5
:1014C000D06C82C0DF70D06A7FC0DC2FCC27C16FA8
:1014D000D06A7AC030E065E0220F331F6A95E1F7E9
:1014E000C1E0D0E002C0CC0FDD1F8A95E2F7C22B2D
:1014F000D32BDA6869C0DC2FCC27C46FD06A64C0F4
:10150000DC2FCC27C06FD06A5FC08C2F8F700E94F9
:10151000650B94E0D695C7959A95E1F7CF70D0E02A
:10152000DC2FCC27D06A8F70806EC82B4DC0C0E0F6
:10153000D0E04AC0C1E8D0E447C0C3E8D0E444C02A
:10154000C2EED4E441C0C9EED4E43EC0CAEED4E455
:101550003BC0C5EBD4E438C0C6EBD4E435C0C3EB24
:10156000D4E432C0C4EBD4E42FC0C7EBD4E42CC025
:10157000CCECD4E429C0CDECD4E426C0C3E8D5E457
:1015800023C0CAE8D5E420C0C2E9D5E41DC0C4E93F
:10159000D5E41AC0C1E2D6E417C0C3E2D6E414C051
:1015A000C4E2D6E411C0C5E2D6E40EC0C6E2D6E479
:1015B0000BC0C7E2D6E408C0CFE6D4E405C0C0E75C
:1015C000D4E402C0CAE2D6E4CE01DF91CF910895FF
:1015D0008238910549F1B0F48133910509F458C07E
:1015E00048F48932910509F44EC08A32910509F414
:1015F00054C008958533910509F440C0893391059D
:1016000099F00895833E910529F138F4803E9105C3
:1016100091F0823E9105A1F00895863E9105F9F082
:10162000873E910531F108952091FF0120FD3AC0D8
:1016300021FD38C008958091FF0180FD35C032C082
:101640008091FF0182FF32C08091FF0184FD30C094
:1016500083EE39C08091FF0182FD28C0F5CF8091D3
:10166000FF0183FF27C08091FF0184FD21C087EE29
:101670002AC08091FF0183FD1DC0F5CF8091FF013D
:1016800085FD1AC01BC08091FF0185FD17C014C0E5
:101690008091FF0186FD14C015C08091FF0186FD79
:1016A00011C00EC080EE0FC089E30DC082EE0BC0EA
:1016B00080E009C086EE07C089E205C085E303C06B
:1016C0008AE201C081E390E008959091FF0192FFCA
:1016D0000DC0282F2871283019F4877F846006C038
:1016E000282F2471243011F48B7F886093FF0DC064
:1016F000282F2871283119F4877E846106C0282F8D
:101700002471243111F48B7E886194FD877E0895C5
:10171000089508950C94890BEBE1F1E041E050E06D
:1017200028E02E0F9191A92FA295AF70B0E091966D
:101730003C9191979F70BA0102C0660F771F9A95EE
:10174000E2F7CB018095832391968C932E13EACFF9
:10175000A3E1B1E041E050E028E02A0F8D91E82FAD
:10176000E295EF70F0E031A18F70BA0102C0660F10
:10177000771F8A95E2F7CB01962F9095932391A33B
:1017800092A1892B82A32A13E9CFA5E4B1E0EDE46D
:10179000F1E088E08E0F11921D928E13FCCF88E04D
:1017A0000E94AD0C0C9469074F925F926F927F92EA
:1017B0008F929F92AF92BF92CF92DF92EF92FF9261
:1017C0000F931F93CF93DF932BE1422E21E0522EF4
:1017D000ADE4B1E020E001E010E038E0932E9A0E95
:1017E0007D018C901C92E20189912E01E82FE295F7
:1017F000EF70F0E031A18F70A80102C0440F551FB7
:101800008A95E2F7CA01342B31A342A1382F3095D3
:10181000432342A350EA5A95F1F793E1C92E91E090
:10182000D92E40E050E0E60179906E01672D629577
:101830006F7070E0EB01A8A06C90B12C772D7F70D9
:1018400002C0B594A7947A95E2F7A0FC07C0602F78
:10185000042E01C0660F0A94EAF701C060E0662911
:101860006C934F5F5F4F48305105E9F691A13923E2
:1018700031A392A1892B82A3119681E0F701908177
:10188000891201C080E0282B9A12AACF48E065E4B3
:1018900071E08DE491E00E94AE0C0E94710781E03E
:1018A000DF91CF911F910F91FF90EF90DF90CF903C
:1018B000BF90AF909F908F907F906F905F904F9070
:1018C0000895E82FF0E0EB5BFE4F80810895CF9202
:1018D000DF92EF92FF920F931F93CF93DF9382E3F8
:1018E00092E00E94AA0685E4E82E81E0F82EC0E08E
:1018F000D0E09DE2C92E92E0D92E05E212E0DF93FE
:10190000CF93DF92CF920E9443078AE292E00E9437
:10191000AA06F70181917F010E9474191F928F938B
:101920001F930F930E94430783E292E00E94AA064E
:1019300021968DB79EB708960FB6F8949EBF0FBE3E
:101940008DBFC830D105D9F6DF91CF911F910F918E
:10195000FF90EF90DF90CF9008950895FF920F933E
:101960001F93CF93DF938C01F62ED72FC42F222302
:1019700049F081E0809357010E94CF1A909356015D
:1019800080935501809157018823C1F080915501C2
:10199000909156010E94E71A069780F0EF2DFD2FD7
:1019A000D8014C2F50E0CD01801B910B8417950777
:1019B0001CF48D918193F7CF10925701DF91CF9155
:1019C0001F910F91FF90089590935D0180935C01AA
:1019D0000895E0915C01F0915D01309721F0019054
:1019E000F081E02D099480E00895EF92FF920F932B
:1019F0001F93CF93DF93E0915C01F0915D013097ED
:101A0000B1F18C010280F381E02D09958091DD0117
:101A100082FF2DC080FF04C089E492E00E94AA06E4
:101A2000E80118E083E4E82E82E0F82E8091DD01E1
:101A300080FF0BC088811F928F93FF92EF920E94CC
:101A400043070F900F900F900F9011502196111196
:101A5000EDCF8091DD0180FF0AC081E492E0DF914B
:101A6000CF911F910F91FF90EF900C94AA06DF91F8
:101A7000CF911F910F91FF90EF900895E0915C013D
:101A8000F0915D01309739F022E0DC012C93048065
:101A9000F581E02D0994089520915A0130915B0160
:101AA0008217930771F090935B0180935A01E09144
:101AB0005C01F0915D01309721F00680F781E02D07
:101AC0000994089520915801309159018217930784
:101AD00071F09093590180935801E0915C01F0916D
:101AE0005D01309721F00084F185E02D099408957F
:101AF000089508950C94790D08950C947C0D0E941E
:101B0000780D0C947A0D81E008950E94C61A0E9407
:101B10008C0B0E949F1B0C947D0DCF93C82F80913E
:101B2000DD0182FF1EC080FF04C082E692E00E94B9
:101B3000AA068091DD0180FF0CC01F92CF938DE536
:101B400092E09F938F930E9443070F900F900F9006
:101B50000F908091DD0180FF04C08BE592E00E9430
:101B6000AA068C2FCF910C944C07CF92DF92EF9264
:101B7000FF920F931F93CF93DF93CDB7DEB72B97D1
:101B80000FB6F894DEBF0FBECDBF0E94D40B0E94EB
:101B9000830D811111C08FEF89838A831B820E947C
:101BA000CF1A8160782F9D838C8349815A816B8104
:101BB0008D810E945D0E56C08FE5C82E81E0D82E23
:101BC00000E010E0E02E802F0E94610CF6014191B0
:101BD0006F01F42EF82631F40F5F1F4F0830110506
:101BE00089F7D9CF9091DD0191FF04C08B870E94C6
:101BF000670C8B8520E030E04F2D50E0922FBA012A
:101C0000022E02C0759567950A94E2F760FF24C022
:101C10002E83EF8221E030E0690102C0CC0CDD1C94
:101C20009A95E2F790E08C219D21892B09F420E020
:101C300028870E94CF1A8160782F9A8789874E81E2
:101C40005F8168858A850E945D0EF801E15AFE4F2A
:101C50008081C826C08206C02F5F3F4F28303105E3
:101C600069F6BACF0E94D01E10915E010E94E90C65
:101C70001817A1F00E94E90C80935E012B960FB615
:101C8000F894DEBF0FBECDBFDF91CF911F910F91B2
:101C9000FF90EF90DF90CF900C948D0D2B960FB6A8
:101CA000F894DEBF0FBECDBFDF91CF911F910F9192
:101CB000FF90EF90DF90CF900895CF93DF93CDB753
:101CC000DEB72B970FB6F894DEBF0FBECDBF4F83A4
:101CD000588769877A878B87DE01119686E0FD0138
:101CE00011928A95E9F785E0FE01379601900D92F1
:101CF0008A95E1F749815A816B817C818D819E8132
:101D00000E94AE152B960FB6F894DEBF0FBECDBF66
:101D1000DF91CF910895FC01808191810E9480180C
:101D20000895CF93DF931F92CDB7DEB7882309F4D0
:101D30002DC1682F8238C1F40E94E90C81FD26C1B3
:101D400069E380910001909101010E943E1A0E9476
:101D50000B192FEF81EE94E0215080409040E1F785
:101D600000C0000069E319C0833811F50E94E90C36
:101D700080FD0CC163E580910001909101010E94FA
:101D80003E1A0E940B192FEF81EE94E02150804003
:101D90009040E1F700C0000063E580910001909160
:101DA00001010E94401A0F90DF91CF910C940B1902
:101DB0008438C1F40E94E90C82FDE8C067E4809198
:101DC0000001909101010E943E1A0E940B192FEF11
:101DD00081EE94E0215080409040E1F700C0000087
:101DE00067E4DBCF8CEF860F813A70F4862F69832E
:101DF0000E94472369818111C9C08091000190919F
:101E000001010E943E1ACFCF80E2860F883048F44D
:101E1000677081E001C0880F6A95EAF70E94C218D6
:101E2000C2CF8BE5860F833088F4653A29F0663A95
:101E300031F083E890E005C081E890E002C082E8DC
:101E400090E00F90DF91CF910C944C0D88E5860FB8
:101E5000873108F091C0683A09F445C0693A09F43D
:101E600045C06A3A09F445C06B3A09F445C06C3A7A
:101E700009F445C06B3B09F445C06C3B09F445C00F
:101E80006D3A09F445C0603B09F445C06E3A09F467
:101E900045C06F3A09F445C0613B09F445C0623B57
:101EA00009F445C0633B09F445C0643B09F445C0EF
:101EB000653B09F445C0663B09F445C0673B09F43E
:101EC00045C0683B09F445C0693B09F445C06D3B1A
:101ED00009F445C06E3B09F445C06A3B09F445C0AE
:101EE00080E090E044C082EE90E041C089EE90E056
:101EF0003EC08AEE90E03BC085EB90E038C086EBB8
:101F000090E035C083EB90E032C084EB90E02FC0CE
:101F100087EB90E02CC08CEC90E029C08DEC90E039
:101F200026C083E891E023C08AE891E020C082E9DE
:101F300091E01DC084E991E01AC081E292E017C0EF
:101F400083E292E014C084E292E011C085E292E064
:101F50000EC086E292E00BC087E292E008C08FE6F6
:101F600090E005C080E790E002C08AE292E00F9026
:101F7000DF91CF910C94620D603F40F0862F0E945C
:101F8000561D0F90DF91CF910C94431E0F90DF915F
:101F9000CF910895882309F464C0823879F40E94AF
:101FA000E90C81FF5EC069E380910001909101011D
:101FB0000E943E1A0E940B1969E310C08338B1F4E5
:101FC0000E94E90C80FF4DC063E580910001909173
:101FD00001010E943E1A0E940B1963E580910001E5
:101FE000909101010E94401A0C940B19843879F4E5
:101FF0000E94E90C82FF35C067E480910001909156
:1020000001010E943E1A0E940B1967E4E7CF9CEF82
:10201000980F913A10F4682FE1CF90E2980F983022
:1020200050F4877091E001C0990F8A95EAF7892FE3
:102030000E94C818D9CF9BE5980F933020F480E018
:1020400090E00C944C0D98E5980F973120F480E0C7
:1020500090E00C94620D803F20F00E94BE1D0C9415
:10206000431E0895882321F00E94C2180C940B1976
:102070000895882321F00E94C8180C940B19089524
:102080004F925F926F927F92BF92CF92DF92EF92C8
:10209000FF920F931F93CF93DF937C01D62FC72F0F
:1020A000FC01058102950F70128111110E94DF1849
:1020B0000E94B818882379F0112369F080E28D0F0F
:1020C000883048F082E00E9456190E94B81891E0CA
:1020D000B82EB92601C0B12CCC2EC2948FE0C822F4
:1020E000D12CF601E45BFF4F0C943F2C8C2F807FAA
:1020F000CF70882311F0C295C07F112399F0CC23B3
:1021000009F4CFC180E28D0F883010F0D11104C0E6
:102110008C2F0E94C21803C08C2F0E94D2180E94DC
:102120000B19BFC18D2F0E94CA0FCC2309F4DEC149
:1021300080E28D0F883010F0D11104C08C2F0E94E6
:10214000C81803C08C2F0E94D8180E940B19CEC14A
:102150008C2F807FCF70803211F0C295C07FDD233D
:1021600019F0D130C9F022C0112371F0002341F0E1
:10217000013031F40E94F2188C2B0E94F818B6C17D
:102180000E94F2188C2B46C1002319F0013009F48B
:10219000ADC10E94011918C0112321F0063008F0CA
:1021A000A5C10EC0053008F0A1C10EC0112351F029
:1021B000002331F0F701858180FF73C18F70858323
:1021C0008C2F28C101117EC18C2F2AC18C2F86959E
:1021D0008695837090E0009719F0019761F086C1B1
:1021E000112321F08D2F9C2F937002C080E090E08E
:1021F0000E944C0D8BC1112321F08D2F9C2F9370C9
:1022000002C080E090E00E94620D80C11123F9F0CD
:10221000D53F51F0D63F71F0D43FA9F48091F90138
:102220009091FA0181600BC08091F9019091FA01BF
:10223000826005C08091F9019091FA0184609093C9
:10224000FA018093F9018D2F0E94561D1EC0D53FC3
:1022500051F0D63F71F0D43FA9F48091F9019091EB
:10226000FA018E7F0BC08091F9019091FA018D7F68
:1022700005C08091F9019091FA018B7F9093FA014A
:102280008093F9018D2F0E94BE1D0E94431E3EC106
:102290008C2F837009F050C0111134C18D2F82959D
:1022A00086958770880F880F9D2F9F70492E512C1F
:1022B000612C712C082E04C0440C551C661C771C24
:1022C0000A94D2F7D4FF14C00FE010E020E030E011
:1022D000B901A80104C0440F551F661F771F8A95D6
:1022E000D2F7CB01BA01609570958095909503C0A7
:1022F00060E070E0CB01C695C695C370D0E0C230F7
:10230000D10561F0C330D10581F064297529862992
:102310009729219771F00E94F716F4C06429752956
:10232000862997290E940917EDC00E94F716C3015C
:10233000B2010E94E516E6C0112319F08C2F8170BE
:1023400001C08695882309F4DDC08D2F829586957E
:102350008770880F880F9D2F9F70492E512C612CFC
:10236000712C082E04C0440C551C661C771C0A9462
:10237000D2F7D4FF14C00FE010E020E030E0B90144
:10238000A80104C0440F551F661F771F8A95D2F716
:10239000CB01BA01609570958095909503C060E07F
:1023A00070E0CB01C695C695C3704C2F50E042300B
:1023B000510569F04330510589F064297529862952
:1023C00097294130510571F00E94BD179BC06429C7
:1023D0007529862997290E94CF1794C00E94BD179E
:1023E000C301B2010E94AB178DC08D2F90E0FC019C
:1023F000E05EF109E531F10508F04FC0E45AFF4F06
:102400000C943F2CDF708C2F8F71112331F00E94C0
:1024100044178D2F0E94321069C00E9465178D2FBE
:102420000E94391063C0112341F0053008F05EC0EE
:102430008C2F8F710E948A1759C0063008F056C041
:10244000F7CF112339F08C2F8F710E9444174EC0A3
:102450001123C9F38C2F8F710E94651747C0112378
:1024600029F08C2F8F710E942F1740C00E942A17CD
:102470003DC0112349F0CF718C2F0E94441763E0B7
:102480008C2F0E94411932C081E00E9456190230FF
:1024900068F182E00E94561929C0112331F000230F
:1024A00091F28D2F0E94910E21C0002399F2D93311
:1024B00049F45FEF67EE73E0515060407040E1F720
:1024C00000C000008D2F0E94CA0F10C04C2F4F700B
:1024D0006D2FC7010E9404090E94561617C04C2F89
:1024E0004F706D2FC7010E94070910C088E0C81601
:1024F000D10441F05CF0EAE0CE1AD108F2E0CF1648
:10250000D10420F40E94E90C0E944C07BB20F1F09A
:102510000E94B41880FD1AC0F70112820E94AE1802
:102520000E944417C7010E94B4120E94AE18DF91A6
:10253000CF911F910F91FF90EF90DF90CF90BF90C0
:102540007F906F905F904F900C946517DF91CF91C3
:102550001F910F91FF90EF90DF90CF90BF907F90F1
:102560006F905F904F9008950F931F93CF93DF93D9
:10257000EC01888199812B813C81232BB9F09F3F0D
:1025800011F48F3F99F0CE010E948307882371F0E8
:10259000688179818A810E948B188C010E94E117E1
:1025A0000E94E216B801CE010E944010DF91CF9147
:1025B0001F910F9108950E94DF180E94EF180E944A
:1025C0000B190E94751F0E94431E80E090E00E943C
:1025D0004C0D80E090E00C94620D80910001909190
:1025E00001010E94421A0C94DB120E94CF180C9435
:1025F000ED12E92FE295EF70F0E03297EE30F10541
:10260000B0F4EF58FF4F0C943F2C803F91F018F43A
:10261000803E68F40EC0843F51F40BC0803E48F009
:10262000813F29F406C093FB882780F9089580E054
:10263000089581E008950E9480180E94F91208957B
:10264000CF93DF9300D000D01F92CDB7DEB70F90AD
:102650000F900F900F900F90DF91CF910895CF932F
:10266000DF9300D000D000D0CDB7DEB726960FB6EE
:10267000F894DEBF0FBECDBFDF91CF910895CF9309
:10268000DF93C091680180916901C817A1F0D0E083
:10269000CE0166E070E00E940E2CFC01E659FE4F70
:1026A0004081518162817381848195810E942F13C1
:1026B0002196C770E8CFDF91CF91089540919A019C
:1026C00050919B0160919C0170919D0180919E01B0
:1026D00090919F010C942F13CF93DF9380919F01D2
:1026E00082958F7009F05CC080919C01882309F469
:1026F00057C020916801D091690140919A01C09121
:102700009B01E0919D01F0919E012D1709F448C0B5
:1027100030E0309709F440C0CF3F11F44F3FE1F172
:10272000C90166E070E00E940E2CDC01A659BE4F84
:1027300011968C911197C8132FC08C9148132CC0FF
:1027400012968C911297811127C013968D919C91AE
:1027500014978E179F0708F401978E1B9F0B883CD8
:102760009105D0F480919F018F70806180939F01CB
:10277000C90166E070E00E940E2CFC01E159FE4F99
:1027800090819F70906190838AE991E00E94B412D9
:10279000DF91CF910C943F132F5F3F4F2770B5CF40
:1027A000DF91CF910895BF92CF92DF92EF92FF9287
:1027B0000F931F93CF93DF93CDB7DEB761970FB61B
:1027C000F894DEBF0FBECDBF8C0185E0F801DE01BD
:1027D0001D9601900D928A95E1F7D8014C911196C2
:1027E0002C9111971296EC9012971396CD90DC9045
:1027F000149750919A0160919B0180919D01909155
:102800009E01009709F46EC16F3F19F45F3F09F410
:1028100069C1B0909C01BB2009F4C3C030919F01F5
:10282000C816D90628F0F601E81BF90BCF0104C041
:10283000809590958C0D9D1DFF24F394883C910507
:1028400088F0F12C307F09F0CBC07C2DD98AC88A62
:10285000522F6E2D89890E9420138AE991E00E94EF
:10286000B412B4C0832F807F09F049C0621314C032
:10287000541312C0E11010C03F70306130939F01BB
:102880000E945E138AE991E00E94B41280919F0138
:10289000D80115968C9331C0CD2831F12F3F11F41A
:1028A0004F3F11F1FE2CE1101FC0E0916801309103
:1028B0006901E31709F45CC0F0E0CF0166E070E065
:1028C0000E940E2CDC01A659BE4F11968C911197D7
:1028D000281307C08C91481304C012968C91811163
:1028E00003C03196E770E5CFFE2CEE2009F425C138
:1028F00080919F01816080939F01F12C1EC1621322
:1029000008C0541306C0E11004C080919F01D80193
:10291000C1C04D872E878D859E850E941B138823FD
:10292000E1F1EE20D1F120919F01822F82958F70ED
:1029300090E0029774F080919A0190919B019887A2
:102940008F831986DB86CA862C87CE0107960E9464
:10295000B41286E0F801AAE9B1E001900D928A95DF
:10296000E1F70E946C130E945E13FF24F394E5C00C
:102970004D872E878D859E850E948018292F229550
:102980002F7030E0223031050CF0CBC09F7009F081
:10299000C5C0805E883008F4D0C0C8010E94B4125F
:1029A000E4CFC816D90608F453C0F601E81BF90BAA
:1029B000CF01883C910508F450C0F12C7C2DD98AB8
:1029C000C88A522F6E2D89890E942013EAE9F1E00E
:1029D00086E0DF011D928A95E9F70E945E13ADC083
:1029E000621314C0541312C0E11010C080919F01F3
:1029F000F8018583C8010E94B41286E0EAE9F1E09B
:102A0000DF011D928A95E9F7FB2C97C04D872E8731
:102A10008D859E850E941B13882309F4BECFEE206E
:102A200009F4BBCF20919F01822F82958F7090E097
:102A300002970CF48ECF80919A0190919B019A831A
:102A400089831B82DD82CC822E83CE0101967FCFCB
:102A5000809590958C0D9D1DACCFFE2CEE2009F439
:102A60009CCF62132EC054132CC020919F0120FDD7
:102A70001FC0822F82958F70D9F0D80115962C93A4
:102A800015978F3049F08F5F982F9295907F822F06
:102A90008F70892B15968C93C8010E94B41286E022
:102AA000F801AAE9B1E001900D928A95E1F795CF7E
:102AB00086E0F801AAE9B1E001900D928A95E1F76C
:102AC0003CC04D872E878D859E850E941B138111EA
:102AD00040CF80919F01816080939F01C8010E9437
:102AE000B4122BC0EE2009F458CF4D872E878D8568
:102AF0009E850E941B13F82E882309F44ECF86E092
:102B0000F801AAE9B1E001900D928A95E1F78AE90E
:102B100091E00E948B0E0E946C135FCF811139CF20
:102B20000CC0243031050CF038CF9F7009F431CF40
:102B3000F8019581907F09F02CCF8F2D61960FB60B
:102B4000F894DEBF0FBECDBFDF91CF911F910F91E3
:102B5000FF90EF90DF90CF90BF900895CF93DF93D9
:102B6000CDB7DEB72C970FB6F894DEBF0FBECDBF42
:102B70004F83588769877A878B879C87CE01079612
:102B80000E94D313882371F08F8198852A853B8515
:102B9000232B09F43FC09F3F09F068C08F3F09F025
:102BA00065C038C086E0FE013796DE0111960190BF
:102BB0000D928A95E1F76F817885EA85FB853097DC
:102BC00049F17F3F11F46F3F29F18091690190E055
:102BD0009C012F5F3F4F277033274091680150E0E1
:102BE0002417350709F44BC069837A83FD83EC838E
:102BF00066E070E00E940E2CDC01A659BE4F96E004
:102C0000FE01319601900D929A95E1F720936901AA
:102C10000E943F1380916801909169018917E9F141
:102C200090E066E070E00E940E2C86599E4F0E9454
:102C3000D313882391F18091680190E066E070E001
:102C40000E940E2CFC01E659FE4F408151816281A9
:102C50007381848195810E942F138091680190E097
:102C600001968770992780936801D4CF4F8158854A
:102C700069857A858B859C850E942F13CBCF0E9416
:102C8000F5121092690110926801EAE9F1E086E01C
:102C9000DF011D928A95E9F7BDCF2C960FB6F89407
:102CA000DEBF0FBECDBFDF91CF910895EF92FF92AF
:102CB0000F931F93CF93DF938C01892B09F46CC082
:102CC000F12CEE24E394E8012196F80184918437F5
:102CD00040F4843008F051C0813081F0823019F125
:102CE0005BC0853709F444C0A8F19CE7980F903782
:102CF00008F052C08F770E94CA0F41C00E5F1F4F6D
:102D0000FE01C49180E28C0F883048F4C7708E2D8C
:102D100001C0880FCA95EAF70E94E21814C08C2FF0
:102D20000E94910E2DC00E5F1F4FFE01C49180E2E4
:102D30008C0F883058F4C7708E2D01C0880FCA954B
:102D4000EAF70E94E8180E940B191AC08C2F0E9403
:102D5000CA0F16C00E5F1F4FFE01C491CC2381F035
:102D60008FE99FE00197F1F700C00000C150F6CF56
:102D70000E5F1F4FFE01F49003C00E94910E8E0162
:102D80008F2D882309F49FCFEFE9FFE03197F1F70A
:102D900000C000008150F5CFDF91CF911F910F91BE
:102DA000FF90EF90089508950C94D3160E94D416C6
:102DB0006093CC017093CD018093CE019093CF01AD
:102DC0000C94DB1208950C94D6160F931F93009168
:102DD000CC011091CD012091CE013091CF01602B1B
:102DE000712B822B932B1F910F910C94D6160F935E
:102DF0001F930091CC011091CD012091CE01309113
:102E0000CF0160237123822393231F910F910C9490
:102E1000D6160F931F930091CC011091CD012091F4
:102E2000CE013091CF0160277127822793271F9110
:102E30000F910C94D61608950C941B170E941C1722
:102E40006093C8017093C9018093CA019093CB012C
:102E50000C94DB1260E070E0CB010C941E170F9312
:102E60001F9341E050E060E070E08A019B0104C0E4
:102E7000000F111F221F331F8A95D2F7C901B80115
:102E80001F910F910C941E170F931F9341E050E078
:102E900060E070E004C0440F551F661F771F8A95DD
:102EA000D2F78091C8019091C901A091CA01B09157
:102EB000CB018A019B01082B192B2A2B3B2BC90123
:102EC000B8011F910F910C941E170F931F9341E0AF
:102ED00050E060E070E004C0440F551F661F771F8C
:102EE0008A95D2F740955095609570958091C8016C
:102EF0009091C901A091CA01B091CB018A019B01B7
:102F0000082319232A233B23C901B8011F910F91DC
:102F10000C941E170F931F9341E050E060E070E0A7
:102F200004C0440F551F661F771F8A95D2F7809102
:102F3000C8019091C901A091CA01B091CB018A0149
:102F40009B01082719272A273B27C901B8011F9190
:102F50000F910C941E170F931F930091C8011091AD
:102F6000C9012091CA013091CB01602B712B822BBA
:102F7000932B1F910F910C941E170F931F93009189
:102F8000C8011091C9012091CA013091CB01602381
:102F90007123822393231F910F910C941E170F937B
:102FA0001F930091C8011091C9012091CA0130916D
:102FB000CB0160277127822793271F910F910C94D3
:102FC0001E170895262F990F990F990F890F982F83
:102FD0009770A1E001C0AA0F9A95EAF786958695A9
:102FE000869590E065E070E00E940E2CFC01E056B2
:102FF000FE4F40E050E0622F70E090819B01042E74
:1030000002C0369527950A94E2F72170332721955F
:1030100029272A23292721934F5F5F4F45305105E8
:1030200061F70895990F990F990F890FA82FA7702D
:1030300086958695869590E065E070E00E940E2C5E
:10304000BC0140E050E080E0FA01E60FF71FE056D7
:10305000FE4F208130E00A2E02C0369527950A9453
:10306000E2F721703327042E01C0220F0A94EAF7F9
:10307000822B4F5F5F4F4530510531F70895BF9266
:10308000CF92DF92EF92FF920F931F93CF93DF9334
:103090008C01C090CC01D090CD01E090CE01F09099
:1030A000CF018091C8019091C901A091CA01B0914E
:1030B000CB01C82AD92AEA2AFB2ACFE1D0E0D701DE
:1030C000C6010C2E04C0B695A795979587950A94CE
:1030D000D2F780FF07C0BC2EB8018C2F0E942709B1
:1030E000019719F4219758F7B12C8B2DDF91CF91CF
:1030F0001F910F91FF90EF90DF90CF90BF900895B8
:10310000CF93DF93EC010E943F18BE010E94270974
:10311000DF91CF9108951F93CF93DF93EB019091AF
:103120006701992321F0CB010E94801813C08823E6
:1031300049F0CB010E943F18182F682FCE010E9442
:10314000E21704C0CB010E941218182FBE01812F74
:103150000E942709DF91CF911F9108958091D0019E
:1031600085958595859508958091D00187700895FE
:103170009091D001977081E009F480E008958091EA
:10318000DC0108959091DC01892B8093DC01089586
:1031900080959091DC0189238093DC010895109241
:1031A000DC0108959091DB01892B8093DB01089568
:1031B00080959091DB0189238093DB010895109223
:1031C000DB0108959091DA01892B8093DA0108954B
:1031D00080959091DA0189238093DA010895109205
:1031E000DA0108958091D101089508950C94F5189D
:1031F0009091D101981721F08093D1010C94F61889
:1032000008958091D101882329F01092D10180E0A6
:103210000C94F6180895E0910001F091010180915D
:10322000DC018083E0910001F091010190818091A7
:10323000DB01892B8083E0910001F09101019081F5
:103240008091DA01892B80838091D101882381F0DC
:10325000E0910001F09101019081892B80838091A0
:103260000001909101010E940C1A81110E94011924
:1032700080910001909101010C94F50C08950C943B
:103280003E19982F990F990F990F692B6093D001D0
:103290000E9444178091D0018595859585950C9461
:1032A0003F191092D00180E00C943F192091D00179
:1032B000809582238093D001982F977079F430E025
:1032C000482F082E000C550B2417350739F085952B
:1032D000859585950E9465170C94511908959093D2
:1032E0003D0180933C0108958295982F9C7C292F65
:1032F00026952695982F9373990F990F922B892FC6
:103300008A7A86959575990F892B089580E090E0CB
:103310000E94612C21E08D3E9E4F09F020E0822F1B
:10332000089582E090E00C94592C682F82E090E0A0
:103330000C94672C83E090E00C94592C682F83E068
:1033400090E00C94672C84E090E00C94592C682F4A
:1033500084E090E00C94672CAB01BC018FE090E01E
:103360000C94792CAB01BC0183E190E00C94792C96
:1033700060E070E0CB010C94B21960E070E0CB012A
:103380000E94AC190C94B8196DEE7EEF80E090E0CD
:103390000E94852C60E082E090E00E94672C60E053
:1033A00083E090E00E94672C1092CC011092CD0136
:1033B0001092CE011092CF0160E084E090E00E9474
:1033C000672C60E085E090E00E94672C60E086E07A
:1033D00090E00E94672C6FEF87E090E00E94672CDE
:1033E00040E050E0BA0188E090E00E94792C60E073
:1033F0008DE090E00E94672C40E050E0BA0188E147
:1034000090E00E94792C60E087E190E00E94672CB8
:103410000C94BD190C94C419FC01329697E080E01D
:10342000915029F021912223D9F38F5FF9CF08958C
:103430009C01FC0132969FEF80E04191461789F094
:103440009F3F19F4411101C0982F8F5F8630A9F773
:103450009F3F39F0F901E90FF11D97FDFA9562835D
:1034600008950895FC01329608962081261301C024
:1034700010823196E817F907C1F708950C94181ACD
:103480000C94321A029626E0FC0111922A95E9F773
:10349000089508950C94491A0E944A1A80910502D1
:1034A000843049F11092DE0120E488E190E00FB60B
:1034B000F894A895809360000FBE2093600080E090
:1034C0000E944C070E944A1A83B7817F846083BFA1
:1034D00083B7816083BF7894889583B78E7F83BFDD
:1034E0000FB6F894A8958091600088618093600081
:1034F000109260000FBE089508950895CF930E9422
:103500007C1A0E94D40B0E947D1AC0E08C2F0E946E
:10351000610C811104C0CF5FC830C1F701C081E0E8
:10352000CF91089508950C94921A0E94F5120E946A
:10353000E90C0E944C070C94931A1F920F920FB63D
:103540000F9211248F939F93AF93BF938091DE01CD
:10355000811113C08091FB019091FC01A091FD01AC
:10356000B091FE014196A11DB11D8093FB01909386
:10357000FC01A093FD01B093FE01BF91AF919F911B
:103580008F910F900FBE0F901F90189582E084BD11
:1035900093E095BD9AEF97BD80936E0008952FB785
:1035A000F8948091FB019091FC01A091FD01B091F4
:1035B000FE012FBF08952FB7F8946091FB01709121
:1035C000FC018091FD019091FE012FBF0895CF92E3
:1035D000DF92EF92FF920F931F932FB7F8944091D1
:1035E000FB015091FC016091FD017091FE012FBF24
:1035F0006A017B01EE24FF248C0120E030E0C0163C
:10360000D106E206F30610F4415051099A01281B35
:10361000390BC9011F910F91FF90EF90DF90CF9070
:10362000089578941F920F920FB60F9211248F93E2
:103630009F93AF93BF938091FB019091FC01A09168
:10364000FD01B091FE010196A11DB11D8093FB010A
:103650009093FC01A093FD01B093FE01BF91AF9147
:103660009F918F910F900FBE0F901F90189581E042
:103670008093E00080E28093D8001092C9008FE12F
:103680009EE40197F1F700C0000087E090EBDC01B9
:1036900080930E0290930F02A0931002B093110238
:1036A0009CE088E10FB6F894A895809360000FBE67
:1036B00090936000FFCFCF92DF92EF92FF920F9333
:1036C0001F93CF93C0E0E82EF12C8C2F0E94610C49
:1036D00000E010E0C82ED12CC601002E02C0959546
:1036E00087950A94E2F780FD06C00F5F1F4F0830F0
:1036F000110591F70AC0602F7C2F80E00E94080915
:10370000E816F90691F781E004C0CF5FC830E9F60A
:1037100080E0CF911F910F91FF90EF90DF90CF90BD
:103720000895CF93C82F8CE20E945B1B882321F061
:103730008C2FCF910C945B1B80E0CF910895CF9399
:103740000E948619811102C00E940A1A8CE792E039
:103750000E94AA06C5E6C15049F00E94D40B8FE32F
:103760009CE90197F1F700C00000F5CF85E792E0F2
:103770000E94AA0689E20E94911B81110FC18AE270
:103780000E94911B81110E940A1A85E00E94911BE0
:1037900081110E94371B0E9491198093DD0187E0FF
:1037A0000E94911B8823A9F18BE10E94911B882321
:1037B00051F08091DD0181FB222720F991E09227D1
:1037C00090FB81F90EC08EE00E94911B882361F06E
:1037D0008091DD0182FB222720F991E0922790FB66
:1037E00082F98093DD0115C080E10E94911B9091C8
:1037F000DD01882341F093FB222720F981E0822715
:1038000080FB93F904C0892F809580FB90F99093F9
:10381000DD018091DD010E9495190E94A31990E0BD
:10382000909300028093FF0180EE0E94911B8823F9
:1038300041F08091FF01982F909590FB80F9809343
:10384000FF0189E30E94911B882359F08091FF01B9
:1038500081FB222720F991E0922790FB81F9809348
:10386000FF0182EE0E94911B882359F08091FF0195
:1038700082FB222720F991E0922790FB82F9809326
:10388000FF0186EE0E94911B882359F08091FF0171
:1038900083FB222720F991E0922790FB83F9809304
:1038A000FF0183EE0E94911B882359F08091FF0154
:1038B00084FB222720F991E0922790FB84F98093E2
:1038C000FF0185E30E94911B882359F08091FF013D
:1038D00085FB222720F991E0922790FB85F98093C0
:1038E000FF0181E30E94911B882359F08091FF0121
:1038F00086FB222720F991E0922790FB86F980939E
:10390000FF0181E10E94911B882359F08091FF0102
:1039100087FB222720F991E0922790FB87F980937B
:10392000FF018091FF010E94A71987E20E94911B6D
:10393000C82F8EE10E94911B8111C2608FE10E940D
:10394000911B8111C46080E20E94911B8111C860AB
:1039500081E20E94911B8111C06182E20E94911B51
:103960008111C06283E20E94911B8111C06484E2D4
:103970000E94911B882311F0C06802C0CC2329F05B
:103980008C2F0E949E196C2F03C00E949A19682FD9
:1039900070E080E090E0CF910C94E316CF91089511
:1039A0008091E10180FF0CC08091050190E065E00D
:1039B00070E00E940E2C95958795959587952EC061
:1039C00081FF0AC08091050190E065E070E00E94EF
:1039D0000E2C9595879522C082FF08C08091050125
:1039E00090E065E070E00E940E2C18C02091E2018A
:1039F0002223D1F030910401231780F78091050133
:103A000090E065E070E00E940E2C622F70E00E9452
:103A10000E2C632F70E00E942B2CCB018038910577
:103A200030F4009731F0089585E090E008958FE735
:103A3000089581E008958091E10180FF08C06091C0
:103A4000030170E0759567957595679523C081FFB3
:103A500006C06091030170E0759567951BC082FFF9
:103A600004C06091030170E012C06091E20166231E
:103A7000D1F0209102016217A0F78091030170E05C
:103A800090E00E940E2C622F70E00E942B2C603878
:103A9000710528F46115710521F0862F08958FE7CF
:103AA000089581E0089561E070E0F4CF803F21F453
:103AB0000E94D01C819504C0813F29F40E94D01C33
:103AC0008093E6010895823F21F40E94D01C8195E5
:103AD00004C0833F29F40E94D01C8093E50108951F
:103AE000893F19F40E941B1D05C08A3F31F40E94D2
:103AF0001B1D81958093E70108958B3F21F40E945F
:103B00001B1D819504C08C3F29F40E941B1D8093CE
:103B1000E8010895843F21F48091E401816017C099
:103B2000853F21F48091E401826011C0863F21F439
:103B30008091E40184600BC0873F21F48091E4010F
:103B4000886005C0883F31F48091E40180618093F2
:103B5000E40108958D3F21F48091E10181600BC063
:103B60008E3F21F48091E101826005C08F3F29F4EE
:103B70008091E10184608093E1010895803F39F4F0
:103B80008091E60187FF6CC01092E60169C0813F19
:103B900029F48091E6011816BCF362C09091E5010A
:103BA000823F29F497FF5CC01092E50159C0833F22
:103BB00019F41916CCF354C0893F41F48091E70100
:103BC00018160CF04DC01092E7014AC08A3F29F444
:103BD0008091E70187FF44C0F6CF8B3F39F4809195
:103BE000E80187FF3DC01092E8013AC08C3F29F4FC
:103BF0008091E8011816BCF333C0843F21F4809112
:103C0000E4018E7F17C0853F21F48091E4018D7F10
:103C100011C0863F21F48091E4018B7F0BC0873F68
:103C200021F48091E401877F05C0883F31F48091C1
:103C3000E4018F7E8093E40113C08D3F21F48091D5
:103C4000E1018E7F0BC08E3F21F48091E1018D7FD9
:103C500005C08F3F29F48091E1018B7F8093E101C2
:103C60008091E50181110EC08091E60181110AC0A9
:103C70008091E701811106C08091E801811102C0A5
:103C80001092E20108958091DD0183FF7EC088EBF0
:103C900092E00E94AA068091E4011F928F9383EB29
:103CA00092E09F938F930E94430781EB92E00E94E2
:103CB000AA068091E501282F082E000C330B3F93B4
:103CC0008F938EEA92E09F938F930E9443078CEA32
:103CD00092E00E94AA068091E601282F082E000C8F
:103CE000330B3F938F9389EA92E09F938F930E94C7
:103CF000430787EA92E00E94AA068091E701282FF5
:103D0000082E000C330B3F938F9384EA92E09F932D
:103D10008F930E94430782EA92E00E94AA06809154
:103D2000E801282F082E000C330B3F938F938FE967
:103D300092E09F938F930E9443078CE992E00E9448
:103D4000AA068091E2011F928F9389E992E09F93E6
:103D50008F930E94430787E992E00E94AA06809110
:103D6000E1011F928F9384E992E09F938F930E94C9
:103D7000430781E992E00E94AA068DB79EB74C9650
:103D80000FB6F8949EBF0FBE8DBF83EE91E00E94E8
:103D90003E0D0E94CF1A9093E0018093DF010895B9
:103DA0001F93CF93DF938091DF019091E0010E94F8
:103DB000E71AFC012091E201222329F090910601EB
:103DC000892F90E007C08091070190E06AE070E0E1
:103DD0000E940E2CE817F90708F483C08091E501D2
:103DE000C091E601D091E7011091E801811107C06F
:103DF000C11173C0D11171C011116FC072C02F3FBA
:103E000019F02F5F2093E201181624F40E94D01CB1
:103E10008093E5018091E50187FF05C00E94D01CD9
:103E200081958093E5011C1624F40E94D01C809398
:103E3000E6018091E60187FF05C00E94D01C8195B4
:103E40008093E6018091E501882321F14091E6010C
:103E5000442301F1082E000C990B65EB70E00E94E1
:103E60000E2C292F392F330F330B2115310509F46F
:103E700021E02093E501842F440F990B65EB70E05E
:103E80000E940E2C892F990F990B009709F481E05D
:103E90008093E6011D1624F40E941B1D8093E70108
:103EA0008091E70187FF05C00E941B1D81958093CB
:103EB000E701111624F40E941B1D8093E8018091F4
:103EC000E80187FF05C00E941B1D81958093E801D2
:103ED000DF91CF911F910C94431E2F3F09F091CF9A
:103EE00099CFDF91CF911F910895E3EEF1E086E045
:103EF000DF011D928A95E9F71092E2011092E1012B
:103F000008958BED94E00E94AA061F9281E08F93A2
:103F10001F9285E08F938DE894E09F938F930E948A
:103F200043070F900F900F900F900F900F900895F0
:103F30008330E9F128F4813061F0823009F108958D
:103F4000853009F462C008F449C0863009F474C0B1
:103F5000089580910701262F30E0280F311D2F3F53
:103F6000310524F4680F6093070103C08FEF80933D
:103F70000701809107011F928F9386EC93E072C036
:103F800080910601262F30E0280F311D2F3F31058B
:103F900024F4680F6093060103C08FEF809306013D
:103FA000809106011F928F9384EB93E05BC0809118
:103FB0000501262F30E0280F311D2F3F310524F455
:103FC000680F6093050103C08FEF80930501809116
:103FD00005011F928F9381EA93E044C08091040110
:103FE000262F30E0280F311D2F3F310524F4680FB4
:103FF0006093040103C08FEF80930401809104015A
:104000001F928F938CE893E02DC080910301262F9F
:1040100030E0280F311D2F3F310524F4680F6093E5
:10402000030103C08FEF80930301809103011F926E
:104030008F9383E793E016C080910201262F30E032
:10404000280F311D2F3F310524F4680F60930201C2
:1040500003C08FEF80930201809102011F928F9322
:1040600088E593E09F938F930E9443070F900F90F2
:104070000F900F900895833081F128F4813059F02A
:104080008230D1F00895853009F449C0B8F1863006
:1040900009F456C0089580910701681720F4861B23
:1040A0008093070102C010920701809107011F92BF
:1040B0008F9389E493E054C080910601681720F43F
:1040C000861B8093060102C01092060180910601B2
:1040D0001F928F9387E393E043C080910501681797
:1040E00020F4861B8093050102C010920501809187
:1040F00005011F928F9384E293E032C08091040106
:10410000681720F4861B8093040102C010920401FA
:10411000809104011F928F938FE093E021C08091E2
:104120000301681720F4861B8093030102C01092DC
:104130000301809103011F928F9386EF92E010C0DC
:1041400080910201681720F4861B8093020102C04F
:1041500010920201809102011F928F938BED92E0E9
:104160009F938F930E9443070F900F900F900F9093
:104170000895CF93C82F1F928F9380EE95E09F9361
:104180008F930E94430781E090E0A0E0B0E0BC0183
:10419000CD0104C0660F771F881F991FCA95D2F7FB
:1041A0000E94E3160F900F900F900F90CF910C94F8
:1041B000F512CF938B3109F4D1C108F067C18B3070
:1041C00009F48AC108F03DC1863009F488C120F4A1
:1041D000853009F496C144C2873009F4A4C18830FF
:1041E00009F03EC286E09BE00E94AA0687E59AE0BD
:1041F0000E94AA060E949A191F928F9384E59AE062
:104200009F938F930E94430782E59AE00E94AA063B
:104210000E949119C82F8FE39AE00E94AA061F926C
:10422000CF938AE39AE09F938F930E94430788E39A
:104230009AE00E94AA068EE29AE00E94AA068C2FBB
:1042400081701F928F938BE29AE09F938F930E94CD
:10425000430789E29AE00E94AA068FE19AE00E9451
:10426000AA06C1FB882780F91F928F938CE19AE000
:104270009F938F930E9443078AE19AE00E94AA06C7
:104280008EE09AE00E94AA06C2FB882780F91F925E
:104290008F938BE09AE09F938F930E94430789E06E
:1042A0009AE00E94AA0680E09AE00E94AA06C3FB58
:1042B000CC27C0F91F92CF938DEF99E09F938F93F6
:1042C0000E9443078BEF99E00E94AA060E94A3195F
:1042D000C82F87EE99E00E94AA061F92CF9382EE24
:1042E00099E09F938F930E94430780EE99E00E948C
:1042F000AA0687EC99E00E94AA068C2F81701F9273
:104300008F9384EC99E09F938F930E9443078DB71E
:104310009EB780960FB6F8949EBF0FBE8DBF82ECFD
:1043200099E00E94AA068BEA99E00E94AA06C1FBC6
:10433000882780F91F928F9388EA99E09F938F9343
:104340000E94430786EA99E00E94AA0684E999E060
:104350000E94AA06C2FB882780F91F928F9381E9E9
:1043600099E09F938F930E9443078FE899E00E9402
:10437000AA068DE799E00E94AA06C3FB882780F968
:104380001F928F938AE799E09F938F930E94430730
:1043900088E799E00E94AA068EE699E00E94AA06A4
:1043A000C4FB882780F91F928F938BE699E09F9337
:1043B0008F930E94430789E699E00E94AA0687E549
:1043C00099E00E94AA06C5FB882780F91F928F9367
:1043D00084E599E09F938F930E94430782E599E0DB
:1043E0000E94AA0686E399E00E94AA06C6FB8827D7
:1043F00080F91F928F9383E399E09F938F930E949C
:10440000430781E399E00E94AA0689E299E00E94AD
:10441000AA06C7FBCC27C0F91F92CF9386E299E08A
:104420009F938F930E94430784E299E00E94AA061B
:104430008DB79EB74C960FB6F8949EBF0FBE8DBF3A
:1044400049C0803109F4B4C020F48E3009F49AC018
:1044500007C1863109F4C7C0893109F001C18BE475
:1044600097E00E94AA0683E297E00E94AA0681EFE5
:1044700096E00E94AA068DEB96E00E94AA068DE7C0
:1044800096E00E94AA068EE496E08FC08A32E1F0A0
:1044900060F4873209F4E0C028F48E3108F4E0C0FB
:1044A0008D51DBC0893269F1DBC0833448F48A3333
:1044B00008F0D0C0853309F4CFC0883369F0D0C08C
:1044C000833409F4C9C0CCC085EF9AE00E94AA06E3
:1044D0000E940A1AC1E0C9C081E897E066C08091D5
:1044E000DD01817F8E7F8093DD018AE597E00E9468
:1044F000AA0681EF9AE00E94AA0681E08093EA0171
:10450000E9CF0E94F51285ED9AE00E94AA069FEF7E
:1045100023ED80E3915020408040E1F700C000008F
:104520000E94371BD7CF8091DD01C82FC095C17085
:10453000C0FB80F98093DD01CC2329F089EC9AE05F
:104540000E94AA0692C08CEB9AE00E94AA06809173
:10455000DD01897F877F8093DD01BCCF9091DD01F4
:1045600091FBCC27C0F981E0C827892FC0FB81F9D6
:104570008093DD01CC2319F08FEA9AE029C081EA0B
:104580009AE013C09091DD0192FBCC27C0F981E045
:10459000C827892FC0FB82F98093DD01CC2319F055
:1045A00082E99AE015C082E89AE00E94AA0692CFBA
:1045B0009091DD0193FBCC27C0F981E0C827892FBA
:1045C000C0FB83F98093DD01CC2351F086E79AE0AC
:1045D0000E94AA068091DD0181608093DD0145C0C3
:1045E00089E69AE0E2CF80E496E00E94AA060E9463
:1045F000E90C1F928F9386E296E09F938F930E941F
:104600004307809112011F928F938FE096E09F9352
:104610008F930E9443078091F7011F928F938CEF35
:1046200095E09F938F930E9443070E94DB1A9F930C
:104630008F937F936F9385EE95E09F938F930E9466
:1046400043078DB79EB742960FB6F8949EBF0FBE34
:104650008DBF40CF895301C080E00E94B9203ACF7E
:1046600087E69AE00E94AA06C0E08C2FCF910895B9
:1046700080E0089580E008958E518A3030F4E82F6C
:10468000F0E0ED5DFE4F8081089580E00895CF93C6
:10469000C82F8091EA01813059F020F0823009F46E
:1046A00045C039C10E94BF18823209F036C104C02A
:1046B0000E94BF18823261F48C2F0E94382381112E
:1046C00004C08C2F0E94D9202FC081E090E02CC024
:1046D0008C2F0E943A23811126C0C431E1F070F47E
:1046E000CB3081F0C031D1F40E94811F88ED95E07C
:1046F0000E94AA0682E08093EA0115C0C93259F0EF
:10470000C83361F48AE597E00E94AA068CED95E033
:104710000E94AA0608C01092EA0101C186ED95E048
:104720000E94AA06FCC081E08170FBC0C43228F55B
:10473000CE3108F0C1C0CB30A1F1D0F4C73009F0C0
:10474000D0C08EE18093070182E3809306018AE066
:104750008093050184E18093040188E08093030144
:1047600088E2809302018CE794E00E94AA06BCC014
:10477000C33149F1C431C1F0B4C0CB3409F4A6C08F
:1047800028F4C93289F0C83361F0ABC0C13509F4EF
:104790009BC0C23509F496C0CE3409F0A2C06AE0CD
:1047A0009BC00E94811FA0C08091E901882319F05D
:1047B0001092E90199C089E894E00E94AA0681E07C
:1047C0008093EA01AEC083E694E00E94AA0681E5E8
:1047D00094E00E94AA06809107011F928F938EE4B5
:1047E00094E09F938F930E9443078CE494E00E948F
:1047F000AA068AE394E00E94AA06809106011F920D
:104800008F9387E394E09F938F930E94430785E300
:1048100094E00E94AA0686E294E00E94AA06809193
:1048200005011F928F9383E294E09F938F930E94E0
:10483000430781E294E00E94AA0680E194E00E948E
:10484000AA06809104011F928F938DE094E09F93BC
:104850008F930E9443078BE094E00E94AA0686EFA4
:1048600093E00E94AA06809103011F928F9383EF29
:1048700093E09F938F930E94430781EF93E00E9400
:10488000AA068AED93E00E94AA06809102011F9277
:104890008F9387ED93E09F938F930E94430785ED5D
:1048A00093E00E94AA068DB79EB748960FB6F8947B
:1048B0009EBF0FBE8DBF18C08C2F0E943C238093DB
:1048C000E90112C061E003C061E006C06AE08091C6
:1048D000E9010E94981F08C08091E9010E943B20D5
:1048E00003C08AE794E013C08091E901882369F04E
:1048F0001F928F9384E794E09F938F930E944307C6
:104900000F900F900F900F9004C081E794E00E94E9
:10491000AA0681E006C01092EA0180E002C080E0B1
:1049200003CFCF9108958091F60108959FB7F89431
:104930001092ED019FBF90910502943009F057C08D
:104940009091E9009F703091EC00232F217030FD91
:1049500020E8922B23E02093E9002091EB0020FF38
:1049600043C02091EE0027FF3FC02091EB0122239E
:1049700021F02091E80025FF37C01092EB0126E0DE
:104980003091E80035FD15C030910502343061F5F5
:104990003091EB0035FD28C0215021F481E0809357
:1049A000EB0122C0EFE9FFE03197F1F700C0000012
:1049B000E7CF8093F1008091E80085FD0AC08091E7
:1049C000E80080FFFCCF8091E8008E778093E800BC
:1049D00006C08FB7F89421E02093ED018FBF9F7040
:1049E0009093E90080E008959F709093E9008FEF25
:1049F00008950F931F93CF93DF9300D01F92CDB7ED
:104A0000DEB78C010E949727823011F0843021F5A7
:104A100084E089831B830A8382E08093E9008FEF1F
:104A20009091E800815095FD06C095ED9A95F1F7BB
:104A300000008111F5CF8091E80085FF0DC040E0B6
:104A400050E063E070E0CE0101960E94B4278091AF
:104A5000E8008E778093E8000F900F900F90DF9121
:104A6000CF911F910F910895CF93DF9300D01F92A4
:104A7000CDB7DEB720910502243031F523E029833C
:104A8000805891099B838A8382E08093E9008FEFAD
:104A90009091E800815095FD06C095ED9A95F1F74B
:104AA00000008111F5CF8091E80085FF0DC040E046
:104AB00050E063E070E0CE0101960E94B42780913F
:104AC000E8008E778093E8000F900F900F90DF91B1
:104AD000CF910895CF93DF93EC010E949727823006
:104AE00011F08430F9F482E08093E9009FEF809127
:104AF000E800915085FD06C085ED8A95F1F700002C
:104B00009111F5CF8091E80085FF0CC040E050E0A6
:104B100066E070E0CE010E94B4278091E8008E77B5
:104B20008093E800DF91CF910895CF93DF93EC015C
:104B30000E949727823011F0843039F581E080930C
:104B4000E9008FEF9091E800815095FD06C095ED4A
:104B50009A95F1F700008111F5CF8091E80085FF6B
:104B600014C040E050E068E070E0CE010E94B4273D
:104B70008091E8008E778093E80088E0FE01AEEE39
:104B8000B1E001900D928A95E1F7DF91CF91089500
:104B90008EE29BE00C94AA068AE29BE00C94AA06A3
:104BA00086E29BE00E94AA060C94951A2091EC01E3
:104BB0002F5F822F62E30E941F2C992319F020930C
:104BC000EC0108951092EC018091ED01882371F1C0
:104BD00080910502843041F58091E9008F70209129
:104BE000EC00922F917020FD90E8892B93E0909338
:104BF000E9009091EB0090FF14C09091EE0097FFB8
:104C000010C09091E80095FF03C01092F100F9CF19
:104C10009091E80090FF05C09091E8009E779093F6
:104C2000E8008F708093E9001092ED01089542E052
:104C300061EC81E00E94BD2842E261EC82E00E94CA
:104C4000BD2842E261EC83E00C94BD28809107020C
:104C5000833009F45CC030F4813071F0823009F4A3
:104C600095C008958A3009F481C08B3009F467C07B
:104C7000893009F0A3C020C080910602813A09F072
:104C80009DC08091E800877F8093E80080910A02B0
:104C900090910B02892B21F468E08EEE91E003C025
:104CA00060E080E090E070E00E94FF278091E800E3
:104CB0008B778093E800089580910602813209F095
:104CC0007DC080910A0290910B02029708F076C095
:104CD0008091E800877F8093E8008091E80082FD62
:104CE00005C0809105028111F8CF68C08091F20063
:104CF000823029F48091F1008B7F813021F4809102
:104D0000F1008093F6018091E8008B7753C0809189
:104D10000602813A09F052C080910A0290910B027A
:104D2000892B09F04BC08091E800877F8093E800D1
:104D30008091E80080FFFCCF8091120136C0809105
:104D400006028132D9F580910A0290910B02892BDB
:104D5000A9F58091E800877F8093E8000E94F228FF
:104D600080910802809312010C94F5128091060242
:104D7000813221F58091E800877F8093E8000E94CE
:104D8000F228809109028093F7010895809106022C
:104D9000813AA1F48091E800877F8093E8008091B8
:104DA000E80080FFFCCF8091F7018093F1008091B3
:104DB000E8008E778093E8000C94F228089584B779
:104DC000877F84BF0FB6F894A895809160008861B2
:104DD00080936000109260000FBE80E880936100B5
:104DE000109261000E947F0D0E9443290E94962923
:104DF0008091E20084608093E20086E994E20E9460
:104E00006F1978940E94F32B0E94850D88E091E041
:104E10000E94E40C85E19BE00E94AA0680910502B5
:104E2000853089F481E19BE00E94AA060E944C1A19
:104E300080910302882391F30E947E1A882371F3E4
:104E40000E949E27EBCF0E94B50DE8CF0C94282737
:104E5000292F332723303105C9F064F4213031057F
:104E600081F02230310509F049C08BE590E026E55C
:104E70003BE048C02132310521F12232310571F188
:104E80003DC082E190E021EB3BE03CC099278130BE
:104E9000910571F02CF4892B89F5E2E5FBE00DC05A
:104EA0008230910541F0039749F5E2E3FBE005C04C
:104EB000E8E4FBE002C0E8E3FBE0849190E09F01BE
:104EC00021C063307105D0F4660F771FFB01EA5CE7
:104ED000FE4F2081318189E090E014C0633071057C
:104EE00068F4FB01EE0FFF1FE05DFE4F2081318172
:104EF000FB01E35DFE4F808190E004C080E090E024
:104F000020E030E0FA013183208308950895CF93A3
:104F1000C82F0E948627C093F801CF9108958091F1
:104F20000502843011F081E0089582E008958091B7
:104F3000F801811102C00C948F27089584E089BD87
:104F400086E089BD09B400FEFDCF8091D8008F7D39
:104F50008093D8008091E00082608093E00080918F
:104F6000E00081FDFCCF0895CF92DF92EF92FF9297
:104F70000F931F93CF93DF93EC018B016A010E9483
:104F80001129811133C0C114D10439F0F601808197
:104F90009181081B190BC80FD91FE12CF12C0115A9
:104FA000110519F18091E80085FD16C08091E80097
:104FB0008E778093E800C114D10449F0F601808116
:104FC0009181E80EF91EF182E08285E00FC00E9417
:104FD0001129882321F30AC089918093F10001509F
:104FE0001109FFEFEF1AFF0ADACF80E0DF91CF91CE
:104FF0001F910F91FF90EF90DF90CF900895209137
:105000000C0230910D022617370748F06115710523
:1050100039F42091E8002E772093E80001C0B9010F
:1050200040E06115710591F120910502222309F4F8
:1050300040C0253009F43FC02091E80023FD3DC069
:105040002091E80022FD2FC02091E80020FFE9CF49
:105050002091F20030E0FC01CF016115710559F09B
:105060002830310540F481918093F100615071093D
:105070002F5F3F4FF1CF41E02830310509F040E08C
:105080002091E8002E772093E800CBCF4111CCCFC0
:105090000AC080910502882361F0853061F080911B
:1050A000E80083FD0AC08091E80082FFF2CF80E033
:1050B000089582E0089583E0089581E008952091A5
:1050C0000C0230910D022617370748F06115710563
:1050D00039F42091E8002E772093E80001C0B9014F
:1050E000FC0120E06115710579F1809105028823AA
:1050F00009F43DC0853009F43CC08091E80083FD8F
:105100003AC08091E80082FD2CC08091E80080FFC9
:10511000E9CF8091F20090E06115710559F0883077
:10512000910540F424912093F1003196615071096A
:105130000196F2CF21E0089709F020E08091E80085
:105140008E778093E800CECF2111CFCF0AC0809117
:105150000502882361F0853061F08091E80083FDCD
:105160000AC08091E80082FFF2CF80E0089582E0DB
:10517000089583E0089581E00895982F953058F5BB
:105180009093E900981739F07091EC002091ED00B0
:105190005091F00003C0242F762F50E021FF19C05A
:1051A0003091EB003E7F3093EB003091ED003D7F7E
:1051B0003093ED003091EB0031603093EB00709351
:1051C000EC002093ED005093F0002091EE0027FFBB
:1051D00007C09F5FD3CF8F708093E90081E008956F
:1051E00080E008958091060287FF11C08091E80059
:1051F00082FD05C0809105028111F8CF11C0809118
:10520000E8008B770BC080910502882349F08091DC
:10521000E80080FFF8CF8091E8008E778093E80067
:1052200008952091E4003091E50095E64091EC006E
:10523000842F817040FF22C08091E80080FD1CC057
:1052400080910502882391F0853091F08091EB00E8
:1052500085FD10C04091E4005091E50042175307CE
:1052600029F39A01915011F784E0089582E008959E
:1052700083E0089581E0089580E008954091E8007A
:1052800042FFDECF08950E94A0290E94A329E0EEEC
:10529000F0E0808181608083E8EDF0E080818F77AD
:1052A000808319BCE3E6F0E0808181608083109206
:1052B000040208950E94A0290E94A3298091D80089
:1052C0008F778093D8008091D80080688093D80031
:1052D0008091D8008F7D8093D80084E089BD86E0DE
:1052E00089BD09B400FEFDCF1092050210920102A3
:1052F000109203021092020242E060E080E00E94FD
:10530000BD288091E1008E7F8093E1008091E200D2
:1053100081608093E2008091E20088608093E200E7
:105320008091E0008E7F8093E0000895E3E6F0E056
:1053300080818E7F808381E0809304020C945A29BF
:105340001092E20008951092E10008951F920F92CA
:105350000FB60F9211242F933F934F935F936F9348
:105360007F938F939F93AF93BF93EF93FF9380911E
:10537000E10082FF0BC08091E20082FF07C08091B4
:10538000E1008B7F8093E1000E94D6258091E100AF
:1053900080FF19C08091E20080FF15C08091E2007B
:1053A0008E7F8093E2008091E20080618093E20032
:1053B0008091D80080628093D80019BC85E08093EA
:1053C00005020E94CC258091E10084FF30C08091CD
:1053D000E20084FF2CC084E089BD86E089BD09B469
:1053E00000FEFDCF8091D8008F7D8093D800809102
:1053F000E1008F7E8093E1008091E2008F7E8093B8
:10540000E2008091E20081608093E20080910102DD
:10541000882311F084E007C08091E30087FD02C07B
:1054200081E001C083E0809305020E94D025809135
:10543000E10083FF29C08091E20083FF25C08091B5
:10544000E100877F8093E10082E080930502109263
:1054500001028091E1008E7F8093E1008091E20063
:105460008E7F8093E2008091E20080618093E20071
:1054700042E060E080E00E94BD288091F0008860FA
:105480008093F0000E94C825FF91EF91BF91AF91EA
:105490009F918F917F916F915F914F913F912F914C
:1054A0000F900FBE0F901F9018951F920F920FB67E
:1054B0000F9211242F933F934F935F936F937F939A
:1054C0008F939F93AF93BF93CF93DF93EF93FF930C
:1054D000C091E900CF708091EC00D82FD17080FD91
:1054E000D0E81092E9008091F000877F8093F0006F
:1054F00078940E94992A1092E9008091F0008860C7
:105500008093F000CD2BCF70C093E900FF91EF9115
:10551000DF91CF91BF91AF919F918F917F916F91CB
:105520005F914F913F912F910F900FBE0F901F9061
:1055300018951F93CF93DF93CDB7DEB7AA970FB619
:10554000F894DEBF0FBECDBFE6E0F2E088E08E0F3C
:105550009091F10091938E13FBCF0E9426268091AB
:10556000E80083FF28C18091060290910702492F2D
:1055700050E04A30510508F01EC1FA01E158FF4FD2
:105580000C943F2C803821F0823809F014C108C0F7
:105590008091020290910302992389F082600FC0EA
:1055A00080910A028F70853008F005C18093E90070
:1055B0008091EB0085FB882780F91092E90090919B
:1055C000E800977F9093E8008093F1001092F1003B
:1055D000D0C0282F2D7F09F0EEC0882319F082302B
:1055E00061F0E9C080910802813009F0E4C0933095
:1055F00009F080E0809303022EC08091080281119F
:105600002AC080910A028F702FEF280F243008F0F3
:10561000D2C08093E9002091EB0020FF1CC09330A2
:1056200021F48091EB00806214C09091EB009061B6
:105630009093EB0021E030E0A90102C0440F551F18
:105640008A95E2F74093EA001092EA008091EB001D
:1056500088608093EB001092E9008091E800877FDA
:105660008093E8000E94F228A6C08111A4C0109186
:1056700008021F778091E3008078812B8093E300FC
:105680008091E800877F8093E8000E94F228809153
:10569000E80080FFFCCF8091E30080688093E30006
:1056A000111102C082E001C083E08093050283C033
:1056B0008058823008F07FC08091080290910902E2
:1056C0008C3D53E0950779F583E08A838AE28983EC
:1056D0004FB7F894DE01139620E03EE051E2E32F4D
:1056E000F0E050935700E49120FF03C0E295EF7083
:1056F0003F5FEF708E2F90E0EA3010F0C79601C048
:10570000C0968D939D932F5F243149F74FBF8091B1
:10571000E800877F8093E8006AE270E0CE0101969E
:105720000E94FF2715C060910A0270910B02AE0122
:105730004F5F5F4F0E942627BC01892BE1F19091BA
:10574000E800977F9093E80089819A810E945F2802
:105750008091E8008B778093E8002DC0803859F560
:105760008091E800877F8093E80080910102809318
:10577000F1008091E8008E7773CF81111CC0909169
:1057800008029230C0F48091E800877F8093E8009F
:10579000909301020E94F22880910102811106C0BB
:1057A0008091E30087FD02C081E001C084E0809326
:1057B00005020E9417268091E80083FF0AC08091AD
:1057C000E800877F8093E8008091EB0080628093FF
:1057D000EB00AA960FB6F894DEBF0FBECDBFDF91E7
:1057E000CF911F910895CF93809105028823A1F056
:1057F000C091E900CF709091EC00892F817090FDED
:1058000080E8C82B1092E9008091E80083FD0E9497
:10581000992ACF70C093E900CF91089500245527AD
:1058200004C0080E591F880F991F009729F076951C
:105830006795B8F37105B9F7802D952F0895991BD9
:1058400079E004C0991F961708F0961B881F7A9577
:10585000C9F78095089597FB072E16F4009407D09A
:1058600077FD09D00E94452C07FC05D03EF49095A9
:1058700081959F4F0895709561957F4F0895EE0F24
:10588000FF1F0590F491E02D0994AA1BBB1B51E169
:1058900007C0AA1FBB1FA617B70710F0A61BB70BA0
:1058A000881F991F5A95A9F780959095BC01CD0145
:1058B0000895F999FECF92BD81BDF89A992780B5D8
:1058C0000895A8E1B0E042E050E00C948D2C262F22
:1058D000F999FECF92BD81BDF89A019700B40216E6
:1058E00039F01FBA20BD0FB6F894FA9AF99A0FBE94
:1058F00008950396272F0E94682C0E94672C252F5D
:105900000E94682C242F0C94682C0196272F0E944B
:10591000682C0C94672CDC01CB01FC01F999FECFBB
:1059200006C0F2BDE1BDF89A319600B40D92415027
:0A5930005040B8F70895F894FFCF37
:10593A00D2012808140A321E932495256A25342593
:10594A00F9240130313233343536379091929394B9
:10595A00959662010203040506070809004085229C
:0C596A006A0CE50BC30B680B810B9A0B59
:00000001FF
