:100000000C944A070C9491070C9491070C94910757
:100010000C9491070C9491070C9491070C94910700
:100020000C9491070C9491070C94A02A0C94732BB8
:100030000C94BA1C0C9491070C9491070C949107A2
:100040000C9491070C9491070C9491070C949107D0
:100050000C9491070C942E1D0C9491070C9491070D
:100060000C9491070C9491070C9491070C949107B0
:100070000C9491070C9491070C9491070C949107A0
:100080000C9491070C9491070C9491070C94910790
:100090000C9491070C9491070C9491070C94910780
:1000A0000C9491070C9491070C94910768747470E8
:1000B000733A2F2F737769746368706C6174652E5F
:1000C000636F2F636F6C6C656374696F6E732F6CF5
:1000D000756E61722D67726F75702D62757900682B
:1000E000747470733A2F2F6B622E616930332E6DEA
:1000F000652F72656469722F6C756E61722F696EFF
:100100006465782E68746D6C0029001E001F002045
:100110000021002200230024002500260027002DB6
:10012000002E002A0035002B0014001A00080015CC
:100130000017001C0018000C00120013002F0030E4
:100140000031004C00E00004001600070009000A1E
:10015000000B000D000E000F00330034002A0028B1
:10016000004B00E1001D001B0006001900050011F6
:10017000001000360037003800E100000052004E49
:1001800000E000E200E3002C0000002C0000002C46
:10019000000000E70001515000000051004F000036
:1001A0005C3A003B003C003D003E003F0040004107
:1001B0000042004300440045004C000100390001AA
:1001C0000001000100010001000100010001000127
:1001D00000010001000100010049000100010001CF
:1001E0000001000100010001000100010001000107
:1001F0000001004C0001004A000100010001000163
:1002000000010001000100010001000100010001E6
:100210000000004B004D0001000100010001000042
:10022000000100000001000000010001004A000080
:10023000004E004D0044454255473A20656E6162CC
:100240006C65642E0A0000000000000000002A2BEC
:100250002800000000000000000000000000000076
:100260000029000000002C1E3420212224342627DF
:10027000252E362D3738271E1F2021222324252600
:100280003333362E37381F0405060708090A0B0CCE
:100290000D0E0F101112131415161718191A1B1C16
:1002A0001D2F3130232D350405060708090A0B0CD4
:1002B0000D0E0F101112131415161718191A1B1CF6
:1002C0001D2F3130354C0000000000000000000000
:1002D000000000000000000000000000000000001E
:1002E0000000000000000001010101010100010106
:1002F00001010000000000000000000000000000FC
:1003000001000100010101010101010101010101DF
:1003100001010101010101010101010101010101CD
:1003200001000000010100000000000000000000CA
:1003300000000000000000000000000000000000BD
:100340000001010101000A002530313662003A2027
:100350000025303258000A722F6320303132333496
:1003600035363738394142434445460A000A0025AC
:1003700030325820006B6579626F6172645F72651C
:10038000706F72743A20000A0025303258006B6595
:1003900079626F6172645F7365745F6C65643A2043
:1003A0000064656C5F6B65795F6269743A206361B4
:1003B0006E27742064656C3A20253032580A00613B
:1003C00064645F6B65795F6269743A2063616E276C
:1003D00074206164643A20253032580A00290A00EA
:1003E0002575002F002575005D280025640020007C
:1003F000256400200025640020002564007C002581
:10040000303258006D6F7573656B6579205B62746F
:100410006E7C782079207620685D287265702F6167
:10042000636C293A205B006D6B5F776865656C5F74
:1004300074696D655F746F5F6D6178203D20256420
:100440000A006D6B5F776865656C5F6D61785F73DF
:1004500070656564203D2025640A006D6B5F7469DA
:100460006D655F746F5F6D6178203D2025640A00C3
:100470006D6B5F6D61785F7370656564203D2025ED
:10048000640A006D6B5F696E74657276616C203D05
:100490002025640A006D6B5F64656C6179203D20E6
:1004A00025640A006D6B5F776865656C5F74696DC4
:1004B000655F746F5F6D6178203D2025640A006D73
:1004C0006B5F776865656C5F6D61785F737065659C
:1004D00064203D2025640A006D6B5F74696D655F63
:1004E000746F5F6D6178203D2025640A006D6B5F3D
:1004F0006D61785F7370656564203D2025640A0036
:100500006D6B5F696E74657276616C203D20256449
:100510000A006D6B5F64656C6179203D2025640A7B
:10052000000A00257500363A20776865656C5F74AF
:10053000696D655F746F5F6D61783A20000A002510
:100540007500353A20776865656C5F6D61785F731B
:10055000706565643A20000A00257500343A2074FD
:10056000696D655F746F5F6D61783A20000A0025E0
:100570007500333A206D61785F73706565643A2069
:10058000000A00257500323A20696E746572766142
:100590006C286D73293A20000A00257500313A2035
:1005A00064656C6179282A31306D73293A20000A1C
:1005B000092D2056616C756573202D0A004D3E0093
:1005C0004D25643E20003F007365742064656661BC
:1005D000756C740A00433E2000776865726520647C
:1005E000656C74613A20637572736F723D25642C7B
:1005F00020776865656C3D25640A536565206874DD
:1006000074703A2F2F656E2E77696B697065646917
:10061000612E6F72672F77696B692F4D6F757365E8
:100620005F6B6579730A000A092D204D6F7573653C
:100630006B6579202D0A4553432F713A097175690D
:10064000740A313A0964656C6179282A31306D7316
:10065000290A323A09696E74657276616C286D7385
:10066000290A333A096D61785F73706565640A34ED
:100670003A0974696D655F746F5F6D61780A353A28
:1006800009776865656C5F6D61785F737065656437
:100690000A363A09776865656C5F74696D655F74E1
:1006A0006F5F6D61780A0A703A097072696E742022
:1006B00076616C7565730A643A09736574206465C4
:1006C0006661756C74730A75703A092B310A646F30
:1006D000776E3A092D310A706775703A092B3130FF
:1006E0000A7067646F776E3A092D31300A0A7370A9
:1006F000656564203D2064656C7461202A206D610D
:10070000785F7370656564202A2028726570656162
:1007100074202F2074696D655F746F5F6D61782937
:100720000A003F004D3E2000433E20004C25640A55
:100730000074696D65725F72656164333228293AAD
:10074000202530346C580A006B65796D61705F63E9
:100750006F6E6669672E6E6B726F3A2025580A00BD
:100760006B6579626F6172645F69646C653A2025BC
:10077000580A006B6579626F6172645F70726F74A2
:100780006F636F6C3A2025580A00686F73745F6B53
:100790006579626F6172645F6C65647328293A20C1
:1007A00025580A000A092D20537461747573202D91
:1007B0000A004743433A20372E332E302041565209
:1007C0002D4C4942433A20322E302E302041565291
:1007D0005F415243483A20617672350A004F5054C7
:1007E000494F4E533A204C554641204D4F555345A5
:1007F0004B45592045585452414B455920434F4E83
:10080000534F4C4520434F4D4D414E44204E4B528B
:100810004F20343039360A004255494C443A2022A0
:10082000302E362E3330332D322D6763343435314C
:100830006622202831383A30323A30372046656215
:100840002032352032303139290A005649443A20C5
:1008500030784131303328537769746368706C6144
:100860007465205065726970686572616C732920C7
:100870005049443A20307830303031284C756E6120
:100880007229205645523A203078303030310A00F3
:10089000444553433A203635252041454B206B656E
:1008A00079626F6172640A000A092D2056657273BD
:1008B000696F6E202D0A000A092D20436F6E736F39
:1008C0006C65202D0A4553432F713A09717569747F
:1008D0000A6D3A096D6F7573656B65790A000A09CF
:1008E0002D204D61676963202D0A443A09446562F1
:1008F0007567204D65737361676520546F67676C1A
:10090000650A583A094D61747269782044656275C8
:1009100067204D6F646520546F67676C65202D20DC
:1009200053686F77206B6579707265737365732098
:10093000696E206D617472697820677269640A4B10
:100940003A094B6579626F6172642044656275672C
:1009500020546F67676C65202D2053686F77206B7C
:1009600065797072657373207265706F72740A4D69
:100970003A094465627567204D6F75736520546F41
:1009800067676C650A563A0956657273696F6E0A35
:10099000533A095374617475730A433A0941637495
:1009A000697661746520436F6E736F6C65204D6F5F
:1009B00064650A46312D4631303A095377697463CC
:1009C0006820746F204C6179657220302D392028A1
:1009D000463130203D204C30290A302D393A095318
:1009E000776974636820746F204C61796572203078
:1009F0002D390A47524156453A095377697463685D
:100A000020746F204C6179657220302028616C74ED
:100A100065726E617465290A423A094A756D7020E3
:100A2000746F20426F6F746C6F616465720A455316
:100A3000433A094A756D7020746F20426F6F746C71
:100A40006F616465722028616C7465726E61746593
:100A5000290A453A095072696E7420454550524F33
:100A60004D2053657474696E67730A425350414355
:100A7000453A09436C65617220454550524F4D0A15
:100A80004E3A094E4B524F20546F67676C650A000F
:100A90000A002575002E6E6B726F3A20000A002541
:100AA00075002E737761705F6261636B736C617345
:100AB000685F6261636B73706163653A20000A006E
:100AC0002575002E737761705F67726176655F656B
:100AD00073633A20000A002575002E6E6F5F6775FC
:100AE000693A20000A002575002E737761705F72E5
:100AF000616C745F726775693A20000A00257500A1
:100B00002E737761705F6C616C745F6C6775693AA6
:100B100020000A002575002E636170736C6F636B93
:100B20005F746F5F636F6E74726F6C3A20000A00BF
:100B30002575002E737761705F636F6E74726F6CD2
:100B40005F636170736C6F636B3A20000A0025303D
:100B50003258006B65796D61705F636F6E666967AF
:100B60002E7261773A20000A002575002E6D6F7590
:100B700073653A20000A002575002E6B6579626F57
:100B80006172643A20000A002575002E6D6174724E
:100B900069783A20000A002575002E656E61626C46
:100BA000653A20000A002530325800646562756796
:100BB0005F636F6E6669672E7261773A20000A0084
:100BC00025750064656661756C745F6C617965722A
:100BD0003A20003F004E4B524F3A206F66660A00A3
:100BE0004E4B524F3A206F6E0A000A6D6F75736557
:100BF0003A206F66660A000A6D6F7573653A206F5A
:100C00006E0A000A6B6579626F6172643A206F66E2
:100C1000660A000A6B6579626F6172643A206F6ED2
:100C20000A000A6D61747269783A206F66660A007C
:100C30000A6D61747269783A206F6E0A000A646501
:100C40006275673A206F66660A000A6465627567B6
:100C50003A206F6E0A000A0A4A756D70696E672045
:100C6000746F20626F6F746C6F616465722E2E2ECC
:100C70002000433E2000436C656172696E67204529
:100C80004550524F4D0A006565636F6E6669673A5D
:100C90000A005B735D004B6579626F61726420735B
:100CA000746172742E0A005B575D005B535D005BDC
:100CB000525D005B445D005B435D00040330000057
:100CC000000C034C0075006E0061007200000030E3
:100CD0000353007700690074006300680070006CC3
:100CE000006100740065002000500065007200691A
:100CF00000700068006500720061006C0073000005
:100D0000000403090409025B00030100A0FA0904BE
:100D1000000001030101000921110100012240002E
:100D20000705810308000A0904010001030000000F
:100D300009211101000122C0000705820320000AD9
:100D40000904020002030000000921110100012230
:100D5000220007058303200001070503032000018B
:100D6000120110010000000803A1010001000102AE
:100D700003010631FF0974A1010975150026FF0062
:100D80009520750881020976150026FF00952075CB
:100D9000089102C005010902A10185020901A10013
:100DA000050919012905150025019505750181021F
:100DB0009501750381010501093009311581257FF0
:100DC00095027508810609381581257F95017508FA
:100DD0008106050C0A38021581257F950175088169
:100DE00006C0C005010980A1018503160100260384
:100DF000001A81002A8300751095018100C0050C3E
:100E00000901A1018504160100269C021A01002A8D
:100E10009C02751095018100C005010906A101859C
:100E200005050719E029E7150025019508750181D9
:100E300002050819012905950575019102950175AD
:100E40000391010507190029EF1500250195F0759B
:100E5000018102C005010906A101050719E029E782
:100E6000150025019508750181029501750881011C
:100E7000050819012905950575019102950175036C
:100E800091010507190029FF150026FF0095067539
:100E9000088100C011241FBECFEFDAE0DEBFCDBF56
:100EA00004B603FE27C08091520290915302A09194
:100EB0005402B09155028730904BA740B04BD1F40B
:100EC0001092520210925302109254021092550244
:100ED00014BE84B7877F84BF0FB6F894A89580911D
:100EE0006000886180936000109260000FBEE0E0B7
:100EF000F8E3099511E0A0E0B1E0E8E4FBE502C009
:100F000005900D92A034B107D9F722E0A0E4B1E03A
:100F100001C01D92A235B207E1F70E94C3270C94CD
:100F2000A22D0C940000FF93EF93E0914001F0910B
:100F30004101309709F00995EF91FF910895FC0167
:100F40008591803011F0EFDFFBCF0895FF27E0E2BD
:100F500030E247FF0CC0419597FF09C0EDE2609574
:100F6000709580959095611D711D811D911D27FFC4
:100F700002C0219530E350E2AA27660F771F881F31
:100F8000991FAA1FA41710F0A41B63955A95A9F7DF
:100F9000AA3008F0A95FA05DAF93F39561157105C4
:100FA0008105910541F7ED3211F4EF93F395F217B6
:100FB00018F43F93F395FBCF8F91B5DFFA95E1F7E6
:100FC0000895E991F9918591803021F0853219F0E9
:100FD000AADFF9CF089520E0E89455915532C1F386
:100FE000503311F4689455915A3348F4505390F3A8
:100FF000220F022E220F220F200D250FF4CF0EF408
:10100000219589919991533619F3533729F1533525
:1010100059F1BC0188279927E8945C3621F489911D
:10102000999168945591543639F446EF7EF077FFE4
:101030000DC08FEF9FEF0AC055374AE039F05835A1
:1010400040E121F0523642E009F00895FF93EF931A
:101050007DDFEF91FF91B7CFFF93EF93FC0181917B
:101060008030B9F360DFFBCFFF93EF9368DFF1CF00
:10107000DF93CF93CDB7DEB72596A3DFCF91DF9176
:1010800008950C945E08803F2CE5920729F0813F7B
:101090009C4559F081E00895FB0182818823D1F3BA
:1010A0008FED90E00E94BB08F5CFFB018281882381
:1010B00089F38CEA90E0F6CF08950895089581E0D1
:1010C00008950C944308CF9390E0FC01EA5BFD4F38
:1010D000C4918A539D4FFC018491882369F081EE6D
:1010E0000E9460108C2F0E9460108C2F0E944D1166
:1010F00081EECF910C944D118C2F0E9460108C2F9B
:10110000F8CFFF920F931F93CF93DF938C01F62EAE
:10111000F8018491882349F1E8012196813049F44E
:10112000FE011491812F0E946010812F0E944D11A9
:1011300006C0823089F4FE0184910E9460108E0105
:101140000F5F1F4F8F2D815018F3EFE9FFE03197AC
:10115000F1F700C00000F7CF833019F4FE0184914D
:10116000E5CF0E946308E801EACFDF91CF911F919C
:101170000F91FF90089560E00C9481080E943B1B42
:10118000811102C00E94B51B0C94FF0C0C94010D40
:101190000C94410808950E947F140E94CA082FEF02
:1011A00084E39CE0215080409040E1F700C00000C3
:1011B0000C94541DFF920F931F93CF93DF938C01D8
:1011C000FC01C081D18180917101811141C0828176
:1011D0008823C9F1CE010E94CA19F82E682FCE01CA
:1011E0000E947019BE018F2D0E94840AEC01B80183
:1011F0000E946108882309F486C0C73DFCE5DF072B
:1012000009F428C108F041C0C531ECE5DE0728F536
:10121000C230FCE5DF0708F099C0C1158CE5D8079E
:1012200009F46CC0C130DC4509F474C081E08093DE
:10123000470180934801C801DF91CF911F910F9121
:10124000FF900C945F08CE010E949F19F82ECACF20
:10125000CE010E94CA19BE01C7CFC631DC4531F7A5
:101260000E945F1AF8019281992309F43FC18A7A9A
:1012700091E009F490E090934201811135C189E237
:101280000E943A1A0E94AE1A3EC0CC3D8CE5D807A7
:1012900009F44EC020F5C83DFCE5DF0709F401C1A3
:1012A000C93DDC4519F6F80182818111FEC08091AB
:1012B0004801811117C180914501909146010E941A
:1012C000041D883C910508F00DC180E20E94AA111E
:1012D00088E20E94601088E20E944D1114C0CD3D4A
:1012E000ECE5DE0769F1CE3DDC4509F09FCFF80162
:1012F0008281882341F00E94B51B05C0F8018281DC
:1013000081110E94CB0880E0DF91CF911F910F9156
:10131000FF900895F80182818823A9F38091090242
:1013200081608093090285E392E00E949F07EBCFE2
:10133000F8018281882339F380E00E946828E3CF96
:10134000F80182818823F9F282E0F7CFF8018281E7
:10135000882309F470CF0E943B1B811102C00E94B8
:10136000B51B0E944E1B90E0909344028093430271
:10137000FE01E350FC45809143028160E231F105BA
:10138000C8F4EB53F64F0C94462DD709E309E7094F
:10139000EB09EF09F309F709FB09FF09030A070A3B
:1013A0000B0A0F0A130A170A1B0A1F0A230A809145
:1013B0004302826080934302809143020E94521B49
:1013C0000E947F14A0CF809143028460F3CF80916C
:1013D00043028860EFCF809143028061EBCF809120
:1013E00043028062E7CF809143028064E3CF809123
:1013F00043028068DFCF809143028460EACF80910E
:1014000043028E7FD7CF809143028D7FD3CF8091CF
:1014100043028B7FCFCF80914302877FCBCF8091D8
:1014200043028F7EC7CF809143028F7DC3CF8091CF
:1014300043028F7BBFCF809143028F77BBCF8091D8
:1014400043028B7FEACF90914302892F97FB87F964
:101450008058B0CFF8018281882361F01092470153
:101460000E94EC1C909344018093430182E00E940F
:10147000A31149CF8091470181110FC08091430191
:10148000909144010E94041D883C910530F486E24D
:101490000E94601086E20E944D1182E00E94AA1113
:1014A00032CFF8018281882351F0109248010E94C6
:1014B000EC1C909346018093450180E2D8CF809147
:1014C000480181110FC080914501909146010E9411
:1014D000041D883C910530F487E20E94601087E289
:1014E0000E944D1180E2DACF85E3CACE809142019D
:1014F000811104C089E20E94411AC4CE85E3FBCF6A
:1015000090E080E008950895972F70E02FE0929F7B
:10151000600D711D1124FB019BE4899FE00DF11DFD
:101520001124EE0FFF1FE75FFE4F85919491089500
:10153000FC01EE0FFF1FEA5BFC4F8591949108952B
:10154000CF93DF930E94840A0E945C0CEC0181150A
:10155000904508F043C0C11580E4D80708F017C1D2
:10156000C83ED10528F5C03ED10508F0A3C0C83A51
:10157000D10580F4C53AD10508F092C0C130D1053B
:1015800009F498C020F0C430D10508F093C0D0E031
:10159000C0E090C0CF3BD10508F490C0CE01805C84
:1015A0009109C03CD10598F30E94980AEC0182C0D1
:1015B000C11520E2D20750F4C11581E0D80708F028
:1015C00079C0C03FD10518F3D06574C0C11520E3C0
:1015D000D20708F0D2C0CE019F70E6CFC11585E5D5
:1015E000D80760F5C11524E5D20708F0FEC0C11583
:1015F00082E5D80750F4C11521E5D20708F4CAC026
:10160000DC2FCC27C16FD06A55C09C2F969596953C
:101610009E0123703327C115D34508F0D7C0C1E020
:10162000D0E002C0CC0FDD1F2A95E2F720E2929FA6
:10163000C0011124C82BD92BDC683CC0C11529E599
:10164000D207A8F4C11588E5D80708F0D3C0C115A2
:1016500026E5D20708F09BCF8C2F0E94DC0CC82F08
:10166000D0E0DC2FCC27CC27DF71D06223C0C1159E
:101670008AE5D80708F4C3C0CE0190568115904280
:1016800008F085CF8D2F8F710E94DC0CDD27D06292
:1016900090E0982F882788279F71C82BD92B0AC0E4
:1016A000C53AD10509F4BDC0C63AD10509F4BCC09C
:1016B000C3E8D0E4CE01DF91CF910895C83AD105B7
:1016C00009F4B5C0C93AD10509F4B4C0CA3AD10584
:1016D00009F4B3C0CB3AD10509F4B2C0CC3AD10574
:1016E00009F4B1C0CB3BD10509F4B0C0CC3BD10566
:1016F00009F4AFC0CD3AD10509F4AEC0C03BD10565
:1017000009F4ADC0CE3AD10509F4ACC0CF3AD10549
:1017100009F4ABC0C13BD10509F4AAC0C23BD10555
:1017200009F4A9C0C33BD10509F4A8C0C43BD10545
:1017300009F4A7C0C53BD10509F4A6C0C63BD10535
:1017400009F4A5C0C73BD10509F4A4C0C83BD10525
:1017500009F4A3C0C93BD10509F4A2C0CD3BD10512
:1017600009F4A1C0CE3BD10509F4A0C0CA3BD10504
:1017700009F09FC0CAE2D6E49DCFCE019927D3FFDE
:1017800003C0EC01D86C96CFEC01D06C93CFDF7026
:10179000D06A90CFCE01F4E096958795FA95E1F75F
:1017A00083709C2F937021E030E002C0220F331F22
:1017B0009A95E2F73C68382BC695C695C37080E2CF
:1017C000C89FE0011124C22BD32B74CFC1E0D0E01D
:1017D00002C0CC0FDD1F2A95E2F720E2929FC001E4
:1017E0001124C82BD92BDA6865CFDC2FCC27C46F26
:1017F000D06A60CFDC2FCC27C06FD06A5BCF8C2F34
:101800008F700E94DC0C34E0D695C7953A95E1F7CD
:10181000CF70D0E0DC2FCC27D06A8F70806EC82BC1
:1018200049CFC1E8D0E446CFC2E8D0E443CFC2EE0E
:10183000D4E440CFC9EED4E43DCFCAEED4E43ACFED
:10184000C5EBD4E437CFC6EBD4E434CFC3EBD4E458
:1018500031CFC4EBD4E42ECFC7EBD4E42BCFCCEC08
:10186000D4E428CFCDECD4E425CFC3E8D5E422CF0F
:10187000CAE8D5E41FCFC2E9D5E41CCFC4E9D5E45A
:1018800019CFC1E2D6E416CFC3E2D6E413CFC4E247
:10189000D6E410CFC5E2D6E40DCFC6E2D6E40ACF37
:1018A000C7E2D6E407CFCFE6D4E404CFC0E7D4E460
:1018B00001CFC0E0D4E4FECE8238910549F1B0F406
:1018C0008133910509F45CC048F48932910509F42B
:1018D00052C08A32910509F458C0089585339105A4
:1018E00009F444C08933910599F00895833E910528
:1018F00031F138F4803E910591F0823E9105B1F0CE
:101900000895863E910511F1873E910541F10895B4
:10191000209143022370C9F080EE90E00895209159
:10192000430220FF12C089E390E008952091430212
:1019300022FF0BC024FF2EC090E080E0089520918C
:10194000430222FD2AC024FDF7CF089520914302CF
:1019500023FFFBCF24FDF0CF87EE90E00895209188
:10196000430223FFF0CF86EE90E0089520914302DA
:1019700025FD16C008952091430225FD14C0089549
:101980002091430226FD12C008952091430226FDB6
:1019900010C0089583EE90E0089582EE90E00895DF
:1019A00089E290E0089585E390E008958AE290E06E
:1019B000089581E390E0C9CF9091430292FF06C061
:1019C000282F2871283069F4877F846093FF06C030
:1019D000282F2871283161F4877E846194FD877EE9
:1019E0000895282F2471243089F78B7F8860EECFEB
:1019F000282F2471243191F78B7E8861EFCF0C94CE
:101A00005C080C945D08CF93DF93A2E2B1E027E27B
:101A100031E061E070E09D91E92FE295EF70F0E038
:101A200041A19F70EB0102C0CC0FDD1F9A95E2F738
:101A3000CE018095842381A32A173B0761F7A3E198
:101A4000B1E061E070E08D91E82FE295EF70F0E099
:101A500041A18F709B0101C0220F8A95EAF7922F56
:101A60009095942391A382A1822B82A3D1E0A232EC
:101A7000BD0749F7109254011092530110924A0188
:101A800010924901109256011092550110924C018A
:101A900010924B01109258011092570110924E0172
:101AA00010924D0110925A0110925901109250015A
:101AB00010924F0110925C0110925B011092520142
:101AC0001092510185E00E944C0EDF91CF910C9451
:101AD000BE086F927F929F92AF92BF92CF92DF9299
:101AE000EF92FF920F931F93CF93DF93A3E5B1E0A3
:101AF00092E2692E91E0792E20E0EE24E394F12C1D
:101B0000AD90BC90119711961C921E92E3018991A1
:101B10003E01E82FE295EF70F0E091A18F70B701E0
:101B200001C0660F8A95EAF7892F862B81A382A1CF
:101B3000962E9094892182A3D0EADA95F1F783E179
:101B4000C82E81E0D82E50E040E0E60139916E01C8
:101B5000032F02950F7010E0E80188A10D911C91F0
:101B6000119790E03F7002C0959587953A95E2F7FE
:101B700080FD3FC0C701042E02C0880F991F0A9440
:101B8000E2F7082B192B11961C930E934F5F5F4FB2
:101B90004F305105D1F681A1892181A382A1682B03
:101BA00062A381E04D915C9111974A155B0509F4A0
:101BB00080E0282B1296D7E26D16D1E07D0609F061
:101BC0009FCF45E069E471E083E591E00E944D0E0E
:101BD0000E94C60881E0DF91CF911F910F91FF9085
:101BE000EF90DF90CF90BF90AF909F907F906F90DD
:101BF000089590E080E0C5CFE82FF0E0EE0FFF1FE2
:101C0000E75BFE4F808191810895CF92DF92EF9242
:101C1000FF920F931F93CF93DF9386E593E00E948B
:101C20009F0789E4E82E81E0F82ED0E0C0E091E53E
:101C3000C92E93E0D92E08E413E0DF93CF93DF920F
:101C4000CF920E9438088EE493E00E949F07F7012C
:101C5000819191917F010E942E1B9F938F931F93DF
:101C60000F930E94380886E493E00E949F07219614
:101C70008DB79EB708960FB6F8949EBF0FBE8DBF66
:101C8000C530D105D1F6DF91CF911F910F91FF9013
:101C9000EF90DF90CF9008950895FF920F931F93D8
:101CA000CF93DF93F82E092F162FD72FC42F22237F
:101CB00049F081E080935F010E94EC1C90935E01EB
:101CC00080935D0180915F018823A1F080915D0187
:101CD00090915E010E94041D069760F0EF2DF02F99
:101CE000A12FBD2F90E080E0D0E08C179D0744F03D
:101CF00010925F01DF91CF911F910F91FF90089596
:101D0000219131912D933D930196EFCF90936501F1
:101D1000809364010895E0916401F091650130972A
:101D200021F00190F081E02D099480E00895EF9278
:101D3000FF920F931F93CF93DF93EC01E091640127
:101D4000F0916501309709F446C080911201882313
:101D500041F08091430287FF04C08881898385E038
:101D600088830280F381E02DCE01099580910902DC
:101D700082FF31C080FF04C085E793E00E949F0787
:101D800010E000E08FE6E82E83E0F82E8091090253
:101D900080FF0EC0FE01E00FF11F80811F928F9324
:101DA000FF92EF920E9438080F900F900F900F90C3
:101DB0000F5F1F4F0830110549F78091090280FF1E
:101DC0000AC08DE693E0DF91CF911F910F91FF90B4
:101DD000EF900C949F07DF91CF911F910F91FF908F
:101DE000EF900895E0916401F0916501309739F02A
:101DF00022E0DC012C930480F581E02D0994089504
:101E000020916201309163012817390771F0909396
:101E1000630180936201E0916401F0916501309764
:101E200021F00680F781E02D09940895209160014A
:101E3000309161012817390771F090936101809307
:101E40006001E0916401F0916501309721F0008418
:101E5000F185E02D0994089585B7806885BF85B721
:101E6000806885BF0895089508950C94330F0895F0
:101E70000C94370F0E942C0F0E94340F0C94350FD6
:101E800081E008950E94E31C0E94030D0E94781DCA
:101E90000C94380FCF93C82F8091090282FF1EC087
:101EA00080FF04C08EE893E00E949F0780910902A2
:101EB00080FF0CC01F92CF9389E893E09F938F938C
:101EC0000E9438080F900F900F900F908091090298
:101ED00080FF04C087E893E00E949F078C2FCF917A
:101EE0000C94C8085F926F927F928F929F92AF92EC
:101EF000BF92CF92DF92EF92FF920F931F93CF93F7
:101F0000DF93CDB7DEB72A970FB6F894DEBF0FBECA
:101F1000CDBF0E94690D0E94400F882309F47AC04A
:101F200097E6A92E91E0B92E10E000E08824839472
:101F3000912C502E802F0E94FC0D7C01F501C19048
:101F4000D1905F01C816D90609F45EC080910902DC
:101F500081FD0E94050E90E080E0CE24DF24340154
:101F6000082E02C0660C771C0A94E2F7960126211F
:101F70003721232B09F443C08E835F82E620F720AC
:101F800081E0EF2809F480E088870E94EC1C8160E2
:101F9000782F9A8789874E815F8168858A850E941C
:101FA0003110000F111FF801E959FE4F8081918116
:101FB00068267926718260820E948D1F0E948B0E96
:101FC000909166018917B9F10E948B0E809366018A
:101FD0002A960FB6F894DEBF0FBECDBFDF91CF912A
:101FE0001F910F91FF90EF90DF90CF90BF90AF9037
:101FF0009F908F907F906F905F900C944A0F019606
:102000008F30910509F0ABCF0F5F1F4F05301105E1
:1020100009F08FCF8FEF89838A831B820E94EC1C8B
:102020008160782F9D838C8349815A816B818D815A
:102030000E943110C1CF2A960FB6F894DEBF0FBEB2
:10204000CDBFDF91CF911F910F91FF90EF90DF9067
:10205000CF90BF90AF909F908F907F906F905F9048
:102060000895CF93DF93CDB7DEB72B970FB6F894D3
:10207000DEBF0FBECDBF4F83588769877A878B87B6
:102080001E821D8285E0FE013796DE0111960190C9
:102090000D928A95E1F749815A816B817C818D810E
:1020A0009E812B960FB6F894DEBF0FBECDBFDF9199
:1020B000CF910C944117FC01808191810C940C1AF2
:1020C000CF93C82F882309F4E6C08238C1F40E9458
:1020D0008B0E81FDE0C089E30E943A1A0E94AE1A7D
:1020E0002FEF81EE94E0215080409040E1F700C056
:1020F000000089E30E94411ACF910C94AE1A8338F4
:10210000A1F40E948B0E80FDC6C083E50E943A1A9E
:102110000E94AE1A2FEF81EE94E021508040904053
:10212000E1F700C0000083E5E5CF8438A1F40E9408
:102130008B0E82FDB0C087E40E943A1A0E94AE1A4C
:102140002FEF81EE94E0215080409040E1F700C0F5
:10215000000087E4CFCF8CEF8C0F813A48F48C2FAE
:102160000E940724811197C08C2F0E943A1AC4CF75
:1021700080E28C0F883048F4C77081E001C0880F7E
:10218000CA95EAF70E94621AB7CF8BE58C0F8330AD
:1021900068F481E890E0C53A31F083E890E0C63A0F
:1021A00011F482E890E0CF910C94000F88E58C0F39
:1021B000873108F068C082EE90E0C83A09F460C048
:1021C00089EE90E0C93A09F45BC08AEE90E0CA3A21
:1021D00009F456C085EB90E0CB3A09F451C086EB88
:1021E00090E0CC3A09F44CC083EB90E0CB3B09F48F
:1021F00047C084EB90E0CC3B09F442C087EB90E011
:10220000CD3AF1F18CEC90E0C03BD1F18DEC90E057
:10221000CE3AB1F183E891E0CF3A91F18AE891E0CA
:10222000C13B71F182E991E0C23B51F184E991E057
:10223000C33B31F181E292E0C43B11F183E292E0D1
:10224000C53BF1F084E292E0C63BD1F085E292E03A
:10225000C73BB1F086E292E0C83B91F087E292E0A2
:10226000C93B71F08FE690E0CD3B51F080E790E004
:10227000CE3B31F090E080E0CA3B11F48AE292E07C
:10228000CF910C94160FC03F30F08C2F0E94141E7B
:10229000CF910C94001FCF910895882309F452C068
:1022A000823871F40E948B0E81FF4CC089E30E943A
:1022B0003A1A0E94AE1A89E30E94411A0C94AE1A8F
:1022C000833859F40E948B0E80FF3CC083E50E9446
:1022D0003A1A0E94AE1A83E5EFCF843859F40E946F
:1022E0008B0E82FF2FC087E40E943A1A0E94AE1A1A
:1022F00087E4E2CF9CEF980F913AF0F290E2980FCA
:10230000983050F4877091E001C0990F8A95EAF7F0
:10231000892F0E94681AD2CF9BE5980F933020F442
:1023200090E080E00C94000F98E5980F973120F42E
:1023300090E080E00C94160F803F20F00E947C1EFD
:102340000C94001F0895882321F00E94621A0C94B7
:10235000AE1A0895882321F00E94681A0C94AE1AD0
:1023600008958F929F92AF92BF92DF92EF92FF9269
:102370000F931F93CF93DF937C01D62FC72FFC01C0
:10238000058102950F70128111110E94811A0E941D
:10239000581AD82E882371F0112331F180E28D0F65
:1023A000883010F182E00E94F91A0E94581A91E0D8
:1023B000D82ED926BC2EB2949FE0B922EB2DF0E0A6
:1023C000EC51FE4E0C94462DF611F61146124612B3
:1023D0008D12B51294129412F71294129213921352
:1023E0001C14941294122514D12CE4CF0C2F0F70CE
:1023F000C07F11F00295007F1123A9F0002359F04E
:1024000080E28D0F883010F0D11109C0802F0E941A
:10241000621A0E94AE1A8D2F0E94601014C0802F85
:102420000E94731AF6CF8D2F0E944D11002359F090
:1024300080E28D0F883010F0D11124C0802F0E94CF
:10244000681A0E94AE1ADD2009F406C20E94541ACE
:1024500080FD02C2F70112820E944E1A0E94D41817
:10246000C7010E9438140E944E1ADF91CF911F912C
:102470000F91FF90EF90DF90BF90AF909F908F9063
:102480000C94F518802F0E94791ADBCFFC2FFF7077
:10249000BF2EC07FC03219F0B29480EFB822DD2386
:1024A00069F0D13049F1112391F1002351F1F70185
:1024B000858180FFB0CF8F70858323C0112381F089
:1024C000011106C00E94951A8B290E94A311BBCF4F
:1024D0000130C1F70E94951A8B290E949B1AB3CF35
:1024E000011106C00E94A41A8B2D0E94AA11ABCF25
:1024F000013009F4A8CFF6CF112329F0063008F0F7
:10250000A2CF8B2DE2CF053008F09DCFEDCF002379
:1025100059F38D2F0E944D1196CF8C2F869586955D
:10252000837079F08130B9F098E0B91609F49BC056
:10253000B91608F488CF86EF8B0D823008F493C06B
:1025400082CF8D2F9C2F9370111102C090E080E0FC
:102550000E94000F78CF8D2F9C2F9370111102C015
:1025600090E080E00E94160F6ECF112309F1D53F55
:1025700099F0D63FB9F0D43F49F480913D02909153
:102580003E02816090933E0280933D028D2F0E9417
:10259000141E0E94001F57CF80913D0290913E0271
:1025A0008260F0CF80913D0290913E028460EACF3C
:1025B000D53F89F0D63FA9F0D43F49F480913D0240
:1025C00090913E028E7F90933E0280933D028D2F2C
:1025D0000E947C1EDECF80913D0290913E028D7F55
:1025E000F2CF80913D0290913E028B7FECCF8C2FF9
:1025F000837009F04BC0111136C02D2F22952695FE
:102600002770220F220F6D2F6F70862E912CB12C08
:10261000A12C022E04C0880C991CAA1CBB1C0A9475
:10262000D2F760E070E0CB01D4FF0FC06FE070E044
:1026300080E090E004C0660F771F881F991F2A95DD
:10264000D2F76095709580959095C695C695C370A4
:10265000C23071F0A0F4682979298A299B29C130F8
:1026600091F00E9486180E948B0E0E94C808EBCE43
:10267000682979298A299B290E949818F4CF0E94F9
:102680008618C501B4010E947418EDCF86951123F8
:1026900011F08C2F8170882331F32D2F22952695F0
:1026A0002770220F220F6D2F6F70862E912CB12C68
:1026B000A12C022E04C0880C991CAA1CBB1C0A94D5
:1026C000D2F760E070E0CB01D4FF0FC06FE070E0A4
:1026D00080E090E004C0660F771F881F991F2A953D
:1026E000D2F76095709580959095C695C695C37004
:1026F000C23051F080F4682979298A299B29C13098
:1027000071F00E944B19AFCF682979298A299B293A
:102710000E945D19A8CF0E944B19C501B4010E9407
:102720003919A1CFE0E2ED0FE53108F066C0F0E025
:10273000E456FC4E0C94462DB113B113B113B113F2
:10274000B113B113B113B113B113B113B113B11369
:10275000B113B113B113B113C213D013D713DE13D6
:10276000E813DF708C2F8F71112331F00E94D41881
:102770008D2F0E94A311D8CE0E94F5188D2F0E9494
:10278000AA11D2CE112341F0053008F0CDCE8C2F06
:102790008F710E941819C8CE063008F0C5CEF7CF49
:1027A0008C2F8F71112339F00E94D418BDCE8C2F3D
:1027B0008F711123C9F30E94F518B6CE112329F0A9
:1027C0008C2F8F710E94BF18AFCE0E94BA18ACCE6A
:1027D000112349F0CF718C2F0E94D41863E08C2F05
:1027E0000E94E41AA1CE81E00E94F91A023008F496
:1027F0009BCE82E00E94F91A97CE112349F0002364
:1028000021F08D2F0E9460108FCE8C2F8F71CCCF36
:10281000002379F0D93349F4FFEF27EE83E0F1503C
:1028200020408040E1F700C000008D2F0E944D1134
:102830007BCE8C2F8F71BFCF4C2F4F706D2FC70168
:102840000E94800A0E94EA17FECD4C2F4F706D2F18
:10285000C7010E94830AF7CDDF91CF911F910F919D
:10286000FF90EF90DF90BF90AF909F908F90089572
:102870000F931F93CF93DF93EC01988189812B8174
:102880003C81232B39F08F3F19F481E09F3F19F0F1
:1028900080E001C081E080FD17C0CE010E94DA080F
:1028A000882391F0688179818A810E94161A8C01AF
:1028B0000E946F190E947118B801CE01DF91CF916B
:1028C0001F910F910C94B111DF91CF911F910F9136
:1028D00008950E94811A0E94921A0E94AE1A0E94C4
:1028E00021200E94001F90E080E00E94000F90E0F5
:1028F00080E00C94160F0E94481A0C9469140E94F0
:10290000701A0C947B14E92FE295EF70E250EE30D0
:10291000E0F4F0E0E257FB4E0C94462D9C149C141E
:10292000A514A514A714A514A514A5149C149C14EF
:10293000AC14A514A514AC14803F19F020F4803E0B
:1029400020F481E00895843FE1F380E00895803E23
:10295000C0F3813FD1F7F5CF93FB882780F9089525
:102960000E940C1A0C948314CF93DF9300D000D0F4
:102970001F92CDB7DEB70F900F900F900F900F9072
:10298000DF91CF910895CF93DF9300D000D000D096
:10299000CDB7DEB726960FB6F894DEBF0FBECDBF1B
:1029A000DF91CF9108951F93CF93DF93C091720170
:1029B00016E0809173018C1304C0DF91CF911F91B9
:1029C0000895D0E01C9FF0011D9FF00D1124EC58DC
:1029D000FE4F4081518162817381848195810E9483
:1029E000C3142196C770E5CF4091A4015091A50171
:1029F0006091A6017091A7018091A8019091A90111
:102A00000C94C3141F93CF93DF938091A901807F0F
:102A1000D1F48091A6018823B1F080917201D09108
:102A20007301B091A401C091A5014091A7015091FB
:102A3000A801A1E0BF3F09F0A0E0BA016095709540
:102A400016E0D81304C0DF91CF911F91089521E0C3
:102A50004115510521F02A2FCF3F09F020E090E0E9
:102A600020FD38C0189FF001199FF00D1124EC587B
:102A7000FE4F21812C132EC020812B132BC02281CD
:102A8000211128C0238134812417350700F1241B2C
:102A9000350B283C3105F0F42091A9012F702061FD
:102AA0002093A90126E0289FF001299FF00D112411
:102AB000E758FE4F80818F708061808384EA91E0C7
:102AC0000E943814DF91CF911F910C94D314260FDC
:102AD000371FDFCF01968770B4CFAF92BF92CF92EE
:102AE000DF92EF92FF920F931F93CF93DF93CDB7B7
:102AF000DEB761970FB6F894DEBF0FBECDBF8C0175
:102B000085E0F801DE011D9601900D928A95E1F7AE
:102B1000D8014C9111965C9111971296EC903091DE
:102B2000A4016091A5018091A7019091A80121E0E5
:102B3000009731F06F3F19F421E03F3F09F020E0AA
:102B4000B22FB170BB2E20FD80C1F801C380D480AC
:102B5000A090A601AA2009F427C1C816D906D0F171
:102B6000D601A81BB90BCD01FF24F394883C910535
:102B700008F0F12C8091A901982F907FFF2009F493
:102B8000CEC0911187C0FE2C651329C0341327C015
:102B9000E11025C08F7080618093A9010E94F41418
:102BA00084EA91E00E9438148091A901F80185839C
:102BB0008F2D61960FB6F894DEBF0FBECDBFDF91AB
:102BC000CF911F910F91FF90EF90DF90CF90BF902A
:102BD000AF900895809590958C0D9D1DC5CF81E097
:102BE000CD2831F05F3F19F481E04F3F09F080E0DC
:102BF00080FD24C081E08E25F82FF170DF2E80FF4C
:102C00003FC0809172012091730136E0821318C099
:102C10004D875E878D859E850E940C1A292F2295EF
:102C20002F70223008F1243030F59F7009F1D8015F
:102C300015969C91907FE1F4FB2CBACF80E0DCCF1D
:102C400090E0389FF001399FF00D1124EC58FE4FB1
:102C50006181561306C06081461303C062816E1104
:102C60000FC001968770D2CF9F7011F0882321F397
:102C7000805E883008F3C8010E943814BD2CDCCF78
:102C8000EE2009F495CF8091A90181608093A9017C
:102C9000F12C8ECF651314C0341312C0E11010C094
:102CA000F8018583C8010E94381486E0F801A4EA7F
:102CB000B1E001900D928A95E1F70E94F41478CF6B
:102CC0004D875E878D859E850E94B014882319F1FB
:102CD000EE2009F18091A901803270F02091A401C9
:102CE0003091A50138872F831986DB86CA868C87A9
:102CF000CE0107960E94381486E0F801A4EAB1E0FC
:102D000001900D928A95E1F70E9402150E94F41439
:102D1000FF24F3944DCFC8010E943814F9CF9111CC
:102D200013C07C2DD98AC88A6E2D89890E94B4145B
:102D300084EA91E00E94381486E0E4EAF1E0DF01E1
:102D40001D928A95E9F7B9CF651312C0341310C0EC
:102D5000E1100EC0F8018583C8010E943814E4EA2E
:102D6000F1E086E0DF011D928A95E9F7FA2C20CF89
:102D70004D875E878D859E850E94B014882359F209
:102D8000EE2049F28091A901803208F4B5CF20915C
:102D9000A4013091A5013A8329831B82DD82CC8274
:102DA0008E83CE010196A6CFC816D90638F1F6015A
:102DB000E81BF90BCF01F12C883C910508F03DC0D0
:102DC000FE2CEE2009F4A7CF651326C0341324C0CF
:102DD0008091A90180FD17C0982F907FA1F0D801A4
:102DE00015968C931597903F09F45CCF982F907FA0
:102DF000905F8F70892B15968C9354CF809590950A
:102E00008C0D9D1DD8CF86E0F801A4EAB1E00190B9
:102E10000D928A95E1F7CCCE4D875E878D859E8594
:102E20000E94B014811168CF8091A90181608093C4
:102E3000A901C8010E943814BBCE7C2DD98AC88A4A
:102E40006E2D89890E94B41477CFEE2009F463CFE8
:102E50004D875E878D859E850E94B014F82E88234D
:102E600009F459CF86E0F801A4EAB1E001900D928F
:102E70008A95E1F784EA91E00E945B100E940215B6
:102E80001CCF1F93CF93DF93CDB7DEB72C970FB630
:102E9000F894DEBF0FBECDBF4F83588769877A870E
:102EA0008B879C87CE0107960E946D15882309F4B5
:102EB00042C09F8188852A853B85232B39F08F3F2F
:102EC00019F481E09F3F19F080E001C081E080FDAE
:102ED00008C04F81588569857A858B859C850E94BD
:102EE000C31416E08091720190917301891709F45F
:102EF00067C0819FC00111248C589E4F0E946D15A0
:102F0000882309F45DC0E09172011E9FF001112435
:102F1000EC58FE4F4081518162817381848195819B
:102F20000E94C3148091720190E0019687709927E6
:102F300080937201D7CF86E0FE013796DE011196AD
:102F400001900D928A95E1F79F8188852A853B85BE
:102F5000232B39F08F3F19F481E09F3F19F080E077
:102F600001C081E080FDBDCF2091730130E0C90137
:102F7000019687709927409172014817190699F0B8
:102F800096E0929FD001939FB00D1124AC58BE4F94
:102F9000FE01319601900D929A95E1F780937301AD
:102FA0000E94D3149ECF0E947F141092730110923E
:102FB000720186E0E4EAF1E0DF011D928A95E9F70B
:102FC0002C960FB6F894DEBF0FBECDBFDF91CF9128
:102FD0001F910895EF92FF920F931F93CF93DF936A
:102FE0008C01892B81F0F12CEE24E394E8012196E9
:102FF000F8018491843770F4843008F05FC0813028
:10300000B1F08230A1F1DF91CF911F910F91FF902C
:10301000EF900895853709F44CC008F43DC09CE753
:10302000980F903780F78F770E944D1149C00E5F3F
:103030001F4FFE01849190E2980F983060F48770E2
:10304000FE2D01C0FF0F8A95EAF78F2F0E94841A88
:103050000E94AE1A02C00E9460108F2D815030F283
:10306000EFE9FFE03197F1F700C00000F7CF0E5F06
:103070001F4FFE01849190E2980F983050F48770B2
:10308000FE2D01C0FF0F8A95EAF78F2F0E948A1A42
:10309000DFCF0E944D11E1CF0E5F1F4FFE01C491A3
:1030A000C150D8F28FE99FE00197F1F700C000000E
:1030B000F7CF0E5F1F4FFE01F490CFCF0E9460103C
:1030C0008E01CBCF08950C9462180E946318609310
:1030D000E0017093E1018093E2019093E3010C948D
:1030E000691408950C9465180F931F930091E001E3
:1030F0001091E1012091E2013091E301602B712BED
:10310000822B932B1F910F910C9465180F931F9393
:103110000091E0011091E1012091E2013091E30181
:1031200060237123822393231F910F910C946518C0
:103130000F931F930091E0011091E1012091E201B2
:103140003091E30160277127822793271F910F9108
:103150000C9465180C9462180C94AA180E94AC1870
:103160006093DC017093DD018093DE019093DF01B9
:103170000C94691460E070E0CB010C94AE180F93CE
:103180001F9341E050E060E070E08A019B0104C0C1
:10319000000F111F221F331F8A95D2F7C901B801F2
:1031A0001F910F910C94AE180F931F9341E050E0C4
:1031B00060E070E004C0440F551F661F771F8A95BA
:1031C000D2F78091DC019091DD01A091DE01B091F8
:1031D000DF018A019B01082B192B2A2B3B2BC901EC
:1031E000B8011F910F910C94AE180F931F9341E0FB
:1031F00050E060E070E004C0440F551F661F771F69
:103200008A95D2F7CB01BA0160957095809590951B
:103210000091DC011091DD012091DE013091DF0190
:1032200060237123822393231F910F910C94AE1876
:103230000F931F9341E050E060E070E004C0440F42
:10324000551F661F771F8A95D2F78091DC019091F8
:10325000DD01A091DE01B091DF018A019B01082709
:1032600019272A273B27C901B8011F910F910C94F8
:10327000AE180F931F930091DC011091DD01209196
:10328000DE013091DF01602B712B822B932B1F917C
:103290000F910C94AE180F931F930091DC011091C5
:1032A000DD012091DE013091DF0160237123822353
:1032B00093231F910F910C94AE180F931F930091BD
:1032C000DC011091DD012091DE013091DF016027EA
:1032D0007127822793271F910F910C94AE180895A0
:1032E0002FE0929F800D1124982F977071E001C0FC
:1032F000770F9A95EAF786958695869525E0829FC1
:10330000C001112450E040E0A62FB0E0FC01E40F22
:10331000F51FE655FE4F60819D01042E02C03695D3
:1033200027950A94E2F7217021952627272326273F
:1033300020834F5F5F4F4530510541F708952FE0DF
:10334000929F800D1124982F97708695869586956B
:1033500025E0829FA001112470E060E080E0FA0186
:10336000E60FF71FE655FE4F208130E0092E02C020
:10337000369527950A94E2F721703327062E01C06F
:10338000220F0A94EAF7822B6F5F7F4F6530710539
:1033900031F70895BF92CF92DF92EF92FF920F9391
:1033A0001F93CF93DF938C01C090DC01D090DD019F
:1033B000E090DE01F090DF018091E0019091E10169
:1033C000A091E201B091E301C82AD92AEA2AFB2A96
:1033D000CFE1D0E0BC2ED701C6010C2E04C0B695BB
:1033E000A795979587950A94D2F780FD0EC02197EF
:1033F00088F7B12C8B2DDF91CF911F910F91FF900A
:10340000EF90DF90CF90BF900895B8018C2F0E946D
:10341000A00A019761F3EECFCF93DF93EC010E94F6
:10342000CA19BE01DF91CF910C94A00A1F93CF93CC
:10343000DF93EB0190917101992331F0CB01DF9182
:10344000CF911F910C940C1A882379F0CB010E9424
:10345000CA19182F682FCE010E947019BE01812F42
:10346000DF91CF911F910C94A00ACB010E949F196C
:10347000182FF4CF682F80910001909101010C94D6
:103480003D1C682F80910001909101010C94481C13
:1034900080910001909101010C94531C8091E401F2
:1034A00085958595859508958091E40187700895A7
:1034B0009091E401977081E009F480E00895809193
:1034C0000802089590910802892B809308020895BC
:1034D000982F90958091080289238093080208957F
:1034E00010920802089590910702892B8093070299
:1034F0000895982F90958091070289238093070261
:10350000089510920702089590910602892B8093E6
:1035100006020895982F9095809106028923809342
:10352000060208951092060208958091E50108951B
:1035300008950C94981A9091E501981721F08093C2
:10354000E5010C94991A08958091E501882329F0EA
:103550001092E50180E00C94991A0895E091000121
:10356000F0910101809108028083E0910001F091C7
:103570000101808190910702892B8083E0910001F5
:10358000F0910101808190910602892B80839091B6
:10359000E501992381F0E0910001F0910101808122
:1035A000892B808380910001909101010E94B71BBB
:1035B00081110E94A41A80910001909101010C9444
:1035C000970E08950C94E11A98E0899F90011124B8
:1035D000622B6093E4010E94D4188091E4018595E8
:1035E000859585950C94E21A1092E40180E00C9484
:1035F000E21A9091E401809589238093E401282FB9
:10360000277071F4282F082E000C330B9217130625
:1036100039F08595859585950E94F5180C94F41AD6
:10362000089590934101809340010895829590E020
:103630009C01220F331F220F331F2C7C95958795F9
:10364000959587958373282B30E0C901880F991FC2
:103650008A7A359527952575822B0895CF93DF9328
:10366000D92F0E94161BC82F8D2F0E94161B9C2F2E
:10367000DF91CF91089590E080E00E94682D21E0D5
:103680008D3E9E4F09F020E0822F089582E090E069
:103690000C94602D83E090E00C94602D84E090E029
:1036A0000C94602D682F84E090E00C946E2DAB019B
:1036B000BC018FE090E00C94802DAB01BC0183E154
:1036C00090E00C94802D60E070E0CB010C945D1BC9
:1036D00060E070E0CB010E94571B0C94631B6DEE01
:1036E0007EEF90E080E00E948C2D60E082E090E030
:1036F0000E946E2D60E083E090E00E946E2D10929B
:10370000E0011092E1011092E2011092E30160E009
:1037100084E090E00E946E2D60E085E090E00E94E1
:103720006E2D60E086E090E00E946E2D6FEF87E0E6
:1037300090E00E946E2D40E050E0BA0188E090E0F9
:103740000E94802D60E08DE090E00E946E2D40E0B0
:1037500050E0BA0188E190E00E94802D60E087E1AE
:1037600090E00E946E2D0C94681B0C946F1BFC0162
:10377000329680911201882321F0809143029EE1CC
:1037800087FF96E080E0915008F40895219122236C
:10379000D1F38F5FF8CF9C01FC0132969FEF80E060
:1037A0004191461751F09F3F19F4411101C0982FE4
:1037B0008F5F8630A9F79F3F09F40895290F311DC7
:1037C00097FD3A95F90162830895FC0132960896B7
:1037D0002191261303C0DF0111971C92E817F90706
:1037E000B9F70895E62FE695E695E695EE3170F483
:1037F000E80FF92FF11D677021E030E001C0220FC2
:103800006A95EAF78281822B82830895809109026A
:1038100080FF0CC01F926F938FEB93E09F938F9369
:103820000E9438080F900F900F900F900895E62F88
:10383000E695E695E695EE3178F4E80FF92FF11D5F
:10384000677021E030E001C0220F6A95EAF7209509
:1038500082812823228308958091090280FF0CC071
:103860001F926F9381EA93E09F938F930E94380891
:103870000F900F900F900F90089520911201222326
:1038800029F02091430227FD0C94F21B0C94CB1BD2
:1038900020911201222329F02091430227FD0C944C
:1038A000171C0C94E51BFC013296809112018823B1
:1038B00051F08091430287FF06C08EE1DF011D9227
:1038C0008A95E9F7089586E0F9CF089508950C9454
:1038D000661C0E94671C80914902843049F1109255
:1038E0000A0288E190E020E40FB6F894A89580934E
:1038F00060000FBE2093600080E00E94C8080E9414
:10390000671C83B7817F846083BF83B7816083BF77
:103910007894889583B78E7F83BF0FB6F894A89567
:1039200080916000886180936000109260000FBEFB
:1039300008950895CF930E94651C0E94690D0E940E
:10394000991CC0E08C2F0E94FC0D892B31F4CF5FB5
:10395000C530C1F780E0CF91089581E0FCCF089594
:103960000C94AF1C0E947F140E948B0E0E94C8080A
:103970000C94B01C1F920F920FB60F9211248F93CC
:103980009F93AF93BF9380910A02811113C08091DE
:103990003F0290914002A0914102B09142024196B3
:1039A000A11DB11D80933F0290934002A09341025C
:1039B000B0934202BF91AF919F918F910F900FBE34
:1039C0000F901F90189582E084BD93E095BD9AEF0B
:1039D00097BD80936E0008952FB7F89480913F02B1
:1039E00090914002A0914102B09142022FBF0895F0
:1039F0002FB7F89460913F0270914002809141028C
:103A0000909142022FBF0895CF92DF92EF92FF92E2
:103A10000F931F932FB7F89440913F0250914002AB
:103A200060914102709142022FBF6A017B01EE2436
:103A3000FF248C0130E020E0C016D106E206F30638
:103A400050F0481B590BCA011F910F91FF90EF9046
:103A5000DF90CF90089541505109F3CF78941F9291
:103A60000F920FB60F9211248F939F93AF93BF9332
:103A700080913F0290914002A0914102B091420298
:103A80000196A11DB11D80933F0290934002A09327
:103A90004102B0934202BF91AF919F918F910F90DD
:103AA0000FBE0F901F90189581E08093E00080E298
:103AB0008093D8001092C9008FE19EE40197F1F73E
:103AC00000C0000087E090EBDC01809352029093ED
:103AD0005302A0935402B093550288E19CE00FB6C4
:103AE000F894A895809360000FBE90936000FFCF7C
:103AF0000E943B1B811102C00E94B51B0E94461B05
:103B0000809309020E944E1B90E0909344028093A0
:103B100043020E944A1B682F70E090E080E00C9402
:103B2000721880910D0280FF12C06091050185E03E
:103B3000689FB001112475956795759567956038F4
:103B40007105A8F561157105A1F1862F089581FF12
:103B500009C06091050185E0689FB0011124759549
:103B60006795EDCF82FF07C06091050185E0689FF2
:103B7000B0011124E4CF20910E022223A9F09091EC
:103B800004016091050185E0689FB00111242917A7
:103B9000B0F6269FA001279F500D1124692F70E0D9
:103BA000CA010E94322DCBCF65E070E0CECF8FE707
:103BB000089581E0089580910D0280FF0CC060910E
:103BC000030170E0759567957595679561157105A9
:103BD00049F1862F089581FF06C06091030170E0CE
:103BE00075956795F3CF6091030182FD0BC09091AD
:103BF0000E029923A1F060910201809103019617B2
:103C000038F0682F70E06038710500F38FE7089591
:103C1000899FC001112470E00E94322DF4CF61E031
:103C200070E0D7CF81E00895803F31F40E94911D6C
:103C30008195809312020895813F19F40E94911D8D
:103C4000F8CF823F31F40E94911D8195809311023B
:103C50000895833F19F40E94911DF8CF893F29F4FC
:103C60000E94DB1D8093130208958A3F21F40E9475
:103C7000DB1D8195F7CF8B3F31F40E94DB1D8195D1
:103C80008093140208958C3F19F40E94DB1DF8CF35
:103C9000843F31F480911002816080931002089576
:103CA000853F21F4809110028260F7CF863F21F496
:103CB000809110028460F1CF873F21F4809110023F
:103CC0008860EBCF883F21F4809110028061E5CFBE
:103CD0008D3F31F480910D02816080930D02089533
:103CE0008E3F21F480910D028260F7CF8F3FB9F7AC
:103CF00080910D028460F1CF803FC1F48091120267
:103D000087FD109212028091110281110EC08091E4
:103D1000120281110AC080911302811106C08091A4
:103D20001402811102C010920E020895813F29F4FD
:103D30008091120218162CF3E6CF90911102823F67
:103D400029F497FFE0CF10921102DDCF833F19F4E1
:103D50001916CCF3D8CF893F39F480911302181685
:103D600094F610921302CFCF8A3F29F48091130268
:103D700087FFC9CFF6CF8B3F39F48091140287FFBC
:103D8000C2CF10921402BFCF8C3F29F4809114024D
:103D90001816BCF3B8CF843F31F4809110028E7FA7
:103DA00080931002B0CF853F21F4809110028D7F67
:103DB000F7CF863F21F4809110028B7FF1CF873FB0
:103DC00021F480911002877FEBCF883F21F480910E
:103DD00010028F7EE5CF8D3F31F480910D028E7FF2
:103DE00080930D0290CF8E3F21F480910D028D7F44
:103DF000F7CF8F3F09F087CF80910D028B7FF0CFF7
:103E00008091090283FF7EC084E094E00E949F07B6
:103E1000809110021F928F938FEF93E09F938F9367
:103E20000E9438088DEF93E00E949F078091110255
:103E3000282F082E000C330B3F938F938AEF93E0CB
:103E40009F938F930E94380888EF93E00E949F070A
:103E500080911202282F082E000C330B3F938F9372
:103E600085EF93E09F938F930E94380883EF93E050
:103E70000E949F0780911302282F082E000C330BFD
:103E80003F938F9380EF93E09F938F930E94380826
:103E90008EEE93E00E949F0780911402282F082E37
:103EA000000C330B3F938F938BEE93E09F938F9394
:103EB0000E94380888EE93E00E949F0780910E02CE
:103EC0001F928F9385EE93E09F938F930E94380803
:103ED00083EE93E00E949F0780910D021F928F93C3
:103EE00080EE93E09F938F930E9438088DED93E0CE
:103EF0000E949F078DB79EB74C960FB6F8949EBF51
:103F00000FBE8DBF8FE092E00E94F20E0E94EC1C6B
:103F100090930C0280930B0208951F93CF93DF932D
:103F200080910B0290910C020E94041DAC019091B3
:103F30000E022091060130E0911106C02091070188
:103F40008AE0289F900111244217530780F0809146
:103F50001102D091120210911302C091140281112A
:103F60000AC0D1116AC0111168C0C11166C0DF91C9
:103F7000CF911F9108959F3F19F09F5F90930E027C
:103F8000181624F40E94911D809311028091110251
:103F900087FF05C00E94911D8195809311021D1617
:103FA00024F40E94911D809312028091120287FFD7
:103FB00005C00E94911D81958093120230911102DB
:103FC0003323C1F0209112022223A1F045EB3403E8
:103FD000C0011124892F911101C081E08093110249
:103FE00045EB240390011124832F311101C081E09E
:103FF00080931202111624F40E94DB1D8093130299
:104000008091130287FF05C00E94DB1D819580937C
:1040100013021C1624F40E94DB1D8093140280916D
:10402000140287FF05C00E94DB1D81958093140256
:10403000DF91CF911F910C94001F9F3F09F09DCFFE
:10404000AECF86E0EFE0F2E0DF011D928A95E9F75E
:1040500010920E0210920D02089587E296E00E94DF
:104060009F071F9281E08F931F9285E08F9389EDC8
:1040700095E09F938F930E9438080F900F900F90B8
:104080000F900F900F900895833009F445C028F4E5
:10409000813061F0823049F10895853009F46AC0B9
:1040A00008F451C0863009F47CC00895809107015E
:1040B000482F460F5527551F4F3F510594F4680F61
:1040C00060930701809107011F928F9382E195E031
:1040D0009F938F930E9438080F900F900F900F902E
:1040E00008958FEF80930701EDCF80910601482F4F
:1040F000460F5527551F4F3F510554F4680F6093E5
:104100000601809106011F928F9380E095E0E0CF39
:104110008FEF80930601F5CF80910501482F460F60
:104120005527551F4F3F510554F4680F6093050103
:10413000809105011F928F938DEE94E0C9CF8FEF90
:1041400080930501F5CF80910401482F460F552734
:10415000551F4F3F510554F4680F6093040180913F
:1041600004011F928F9388ED94E0B2CF8FEF80937C
:104170000401F5CF80910301482F460F5527551FA5
:104180004F3F510554F4680F609303018091030180
:104190001F928F938FEB94E09BCF8FEF809303015F
:1041A000F5CF80910201482F460F5527551F4F3FED
:1041B000510554F4680F60930201809102011F922F
:1041C0008F9384EA94E084CF8FEF80930201F5CF40
:1041D0008330C9F128F4813061F0823019F10895FB
:1041E000853009F452C008F43FC0863009F45EC03F
:1041F000089580910701681790F4861B809307014A
:10420000809107011F928F9385E994E09F938F938C
:104210000E9438080F900F900F900F900895109201
:104220000701EECF80910601681750F4861B80933A
:104230000601809106011F928F9383E894E0E6CFF8
:1042400010920601F6CF80910501681750F4861B85
:1042500080930501809105011F928F9380E794E080
:10426000D5CF10920501F6CF80910401681750F464
:10427000861B80930401809104011F928F938BE52C
:1042800094E0C4CF10920401F6CF80910301681727
:1042900050F4861B80930301809103011F928F933A
:1042A00082E494E0B3CF10920301F6CF8091020133
:1042B000681750F4861B80930201809102011F92BF
:1042C0008F9387E294E0A2CF10920201F6CFCF93B2
:1042D000C82F1F928F938CE297E09F938F930E9439
:1042E000380861E070E080E090E004C0660F771F5E
:1042F000881F991FCA95D2F70E9472180F900F90CD
:104300000F900F90CF910C947F14CF93EBEFE80FA9
:10431000EF3308F067C2F0E0E057FE4D0C94462DF5
:104320001E230B233023CF21F223F2230623F22373
:10433000F2235D23F2236D23D823F223F223F22309
:10434000F2239423F223F2237D23F2234823F22342
:10435000F223F023F023F023F023F023F023F023C3
:10436000F023F023EA23F2231E23FF22F223F22379
:10437000F223F223F223F223F223F223F223F22395
:10438000EA23F223F2230623F223EE23EE23EE2385
:10439000EE23EE23EE23EE23EE23EE23EA2387E83B
:1043A0009CE00E949F0783EC9BE00E949F070E9475
:1043B0004A1B1F928F9380EC9BE09F938F930E94E8
:1043C00038088EEB9BE00E949F070E94461BC82F77
:1043D0008BEA9BE00E949F071F92CF9386EA9BE0A7
:1043E0009F938F930E94380884EA9BE00E949F0766
:1043F0008AE99BE00E949F078C2F81701F928F9308
:1044000087E99BE09F938F930E94380885E99BE0A2
:104410000E949F078BE89BE00E949F07C1FB8827B3
:1044200080F91F928F9388E89BE09F938F930E945F
:10443000380886E89BE00E949F078AE79BE00E947D
:104440009F07C2FB882780F91F928F9387E79BE025
:104450009F938F930E94380885E79BE00E949F07F7
:104460008CE69BE00E949F07C3FBCC27C0F91F92FC
:10447000CF9389E69BE09F938F930E94380887E64D
:104480009BE00E949F070E944E1BC82F83E59BE084
:104490000E949F071F92CF938EE49BE09F938F9380
:1044A0000E9438088CE49BE00E949F0783E39BE016
:1044B0000E949F078C2F81701F928F9380E39BE057
:1044C0009F938F930E9438088DB79EB780960FB642
:1044D000F8949EBF0FBE8DBF8EE29BE00E949F07A7
:1044E00087E19BE00E949F07C1FB882780F91F920C
:1044F0008F9384E19BE09F938F930E94380882E121
:104500009BE00E949F0780E09BE00E949F07C2FB08
:10451000882780F91F928F938DEF9AE09F938F9356
:104520000E9438088BEF9AE00E949F0789EE9AE07C
:104530000E949F07C3FB882780F91F928F9386EE06
:104540009AE09F938F930E94380884EE9AE00E942D
:104550009F078AED9AE00E949F07C4FB882780F995
:104560001F928F9387ED9AE09F938F930E94380854
:1045700085ED9AE00E949F0783EC9AE00E949F07D6
:10458000C5FB882780F91F928F9380EC9AE09F9358
:104590008F930E9438088EEB9AE00E949F0782EA70
:1045A0009AE00E949F07C6FB882780F91F928F938D
:1045B0008FE99AE09F938F930E9438088DE99AE0E3
:1045C0000E949F0785E99AE00E949F07C7FBCC27BE
:1045D000C0F91F92CF9382E99AE09F938F930E9434
:1045E000380880E99AE00E949F078DB79EB74C96E5
:1045F0000FB6F8949EBF0FBE8DBF81E01DC086E749
:104600009CE00E949F070E94B51BF7CF8EED98E0BB
:104610000E949F07F2CF80910902817F8E7F809355
:10462000090287EB98E00E949F0782E79CE00E94C6
:104630009F0781E080931602CF9108950E947F1416
:1046400086E59CE00E949F079FEF23ED80E3915059
:1046500020408040E1F700C000000E94541DCDCFF3
:1046600090910902892F8E7F90FF816080930902CB
:1046700080FF03C08AE49CE0CBCF8DE39CE00E94E6
:104680009F0780910902897F877F80930902B5CFB8
:1046900090910902892F8D7F91FF8260809309029A
:1046A00081FF08C080E39CE00E949F07809109027F
:1046B0008160EBCF82E29CE0ABCF90910902892F21
:1046C0008B7F92FF84608093090282FF03C083E1A5
:1046D0009CE0EACF83E09CE09BCF90910902892F78
:1046E000877F93FF88608093090283FF03C087EF71
:1046F0009BE0DACF8AEE9BE08BCF88EA98E00E94BD
:104700009F0780E998E00E949F078BE498E00E9451
:104710009F0788E198E00E949F078DED97E00E9437
:104720009F0782EB97E074CF84EA97E00E949F078F
:104730000E948B0E1F928F938AE897E09F938F932E
:104740000E943808809112011F928F9383E797E0AF
:104750009F938F930E94380880913B021F928F9302
:1047600080E697E09F938F930E94380880914302E0
:1047700087FB882780F91F928F9388E497E09F93A7
:104780008F930E9438080E94F81C9F938F937F9309
:104790006F9381E397E09F938F930E9438088DB7C2
:1047A0009EB746960FB6F8949EBF0FBE8DBF25CF1D
:1047B0000E947F1490914302892F97FB87F98058BC
:1047C0008093430287FF03C080EE9BE021CF85EDFD
:1047D0009BE01ECF80E00E9467210FCF8953FBCF63
:1047E0008D51F9CF83ED9BE00E949F0780E024CF9D
:1047F00080E008950C94F8238E518A3030F4E82F2D
:10480000F0E0E95DFE4F8081089580E00895CF9348
:10481000C82F809116028130B9F038F0823009F447
:1048200047C01092160280E00DC00E945F1A8232CB
:10483000D1F78C2F0E94F82381111BC08C2F0E946E
:1048400085218170CF9108950E945F1A823289F389
:104850008C2F0E94FA2381111BC0C431D9F060F45F
:10486000CB3071F0C031D1F082E297E00E949F0717
:1048700013C081E090E0E5CFC93261F0C833A1F701
:1048800087EB98E00E949F0788E297E00E949F07CD
:1048900081E0D7CF1092160280E0D3CF0E942D2066
:1048A00084E297E00E949F0782E080931602F0CF97
:1048B000C432C8F4CE3108F0BEC0CB30E1F040F4D1
:1048C000C73009F4CCC086EC95E00E949F0726C053
:1048D000C331C1F1C431B9F780911502882351F178
:1048E000109215020AC0CB3409F4B7C0C8F4C9321B
:1048F00099F3C83341F70E942D2080911502882337
:1049000009F4C4C01F928F9380EC95E09F938F931E
:104910000E9438080F900F900F900F9081E092CF77
:10492000C13509F494C0C23509F48BC0CE3459F6B0
:104930006AE08EC085ED95E00E949F0781E080933C
:10494000160280CF8FEA95E00E949F078DE995E0DF
:104950000E949F07809107011F928F938AE995E03B
:104960009F938F930E94380888E995E00E949F07E3
:1049700086E895E00E949F07809106011F928F9321
:1049800083E895E09F938F930E94380881E895E033
:104990000E949F0782E795E00E949F078091050192
:1049A0001F928F938FE695E09F938F930E94380814
:1049B0008DE695E00E949F078CE595E00E949F0799
:1049C000809104011F928F9389E595E09F938F93C7
:1049D0000E94380887E595E00E949F0782E495E0F1
:1049E0000E949F07809103011F928F938FE395E0B0
:1049F0009F938F930E9438088DE395E00E949F0754
:104A000086E295E00E949F07809102011F928F939A
:104A100083E295E09F938F930E94380881E295E0AE
:104A20000E949F078DB79EB748960FB6F8949EBF19
:104A30000FBE8DBF62CF8C2F0E94FC238093150286
:104A40005CCF61E0809115020E94442056CF61E066
:104A5000809115020E94E82050CF6AE0F3CF8EE1EA
:104A60008093070182E3809306018AE08093050129
:104A700084E18093040188E08093030188E28093BD
:104A8000020188EC95E00E949F0737CF8DEB95E0FF
:104A90001CCF80913A0208959FB7F89410921902A2
:104AA0009FBF90914902943009F049C02091E900DC
:104AB0002F709091EC0090FD30C090E0922B23E09D
:104AC0002093E9002091EB0020FF36C02091EE00FA
:104AD00027FF32C020911702222321F02091E80005
:104AE00025FF2AC01092170226E03091E80035FF1A
:104AF00016C08093F1008091E80085FD29C0809167
:104B0000E80080FFFCCF8091E8008E778093E8007A
:104B10009F709093E90080E0089590E8CFCF3091A6
:104B20004902343049F43091EB0035FD05C0215085
:104B300041F481E0809317029F709093E9008FEF1A
:104B40000895EFE9FFE03197F1F700C00000CDCF05
:104B50008FB7F89421E0209319028FBFD9CF0F931C
:104B60001F93CF93DF9300D01F92CDB7DEB78C0198
:104B70000E947828823011F0843021F584E0898306
:104B80001B830A8382E08093E9008FEF9091E80015
:104B9000815095FD06C095ED9A95F1F700008111C1
:104BA000F5CF8091E80085FF0DC050E040E063E064
:104BB00070E0CE0101960E9495288091E8008E77E2
:104BC0008093E8000F900F900F90DF91CF911F918D
:104BD0000F910895CF93DF9300D01F92CDB7DEB72A
:104BE00020914902243031F523E02983805891092E
:104BF0009B838A8382E08093E9008FEF9091E800A5
:104C0000815095FD06C095ED9A95F1F70000811150
:104C1000F5CF8091E80085FF0DC050E040E063E0F3
:104C200070E0CE0101960E9495288091E8008E7771
:104C30008093E8000F900F900F90DF91CF9108952F
:104C4000CF93DF93EC010E947828823011F08430FA
:104C5000F9F482E08093E9008FEF9091E8008150B1
:104C600095FD06C095ED9A95F1F700008111F5CFFD
:104C70008091E80085FF0CC050E040E066E070E005
:104C8000CE010E9495288091E8008E778093E800FD
:104C9000DF91CF910895CF93DF93EC010E947828A4
:104CA000823011F08430B9F5809112018823B1F17E
:104CB0008091430287FF32C060E282E08093E90086
:104CC0008FEF9091E800815095FD06C095ED9A9583
:104CD000F1F700008111F5CF8091E80085FF1BC03E
:104CE0008091120170E050E040E0811104C050E07A
:104CF00040E068E070E0CE010E9495288091E800D5
:104D00008E778093E80080E2FE01AAE1B2E0019094
:104D10000D928A95E1F7DF91CF91089568E081E0E7
:104D2000CDCF87EB9CE00E949F07809148028111C4
:104D300009C00E94252A0E94822A8091E200846094
:104D40008093E200089583EB9CE00E949F071092FD
:104D5000480208958FEA9CE00C949F078BEA9CE040
:104D60000C949F0787EA9CE00E949F070C94B21C5A
:104D7000209118022F5F822F62E30E94262D992333
:104D800019F02093180208951092180280911902C8
:104D90008823E9F0809149028430B9F49091E900C8
:104DA0009F708091EC0080FD13C080E0892B93E020
:104DB0009093E9009091EB0090FF04C09091EE0079
:104DC00097FD0AC08F708093E90010921902089530
:104DD00080E8ECCF1092F1009091E80095FDFACFB9
:104DE0009091E80090FFEECF9091E8009E7790932D
:104DF000E800E8CF42E061EC81E00E94A32942E2B2
:104E000061EC82E00E94A32942E261EC83E00C9411
:104E1000A32980914B02833009F462C030F48130C1
:104E2000D9F1823009F49EC008958A3009F48AC00D
:104E30008B3009F470C0893009F051C080914A026A
:104E4000813209F04CC080914E0290914F0202973E
:104E500008F045C08091E800877F8093E80080914A
:104E6000E80082FF38C08091F3009091F20089271A
:104E700098278927029729F48091F1008B7F813050
:104E800021F48091F10080933A028091E8008B77C1
:104E90008093E8000C94D72980914A02813AF9F472
:104EA0008091E800877F8093E80080914E02909186
:104EB0004F02892B61F460E28AE192E070E00E9487
:104EC000E4288091E8008B778093E800089560E003
:104ED00090E080E0F3CF809149028111C0CF089526
:104EE00080914A02813AD9F780914E0290914F0207
:104EF000892BA9F78091E800877F8093E800809153
:104F0000E80080FFFCCF809112018093F100809136
:104F1000E8008E77BDCF80914A02813201F78091FF
:104F20004E0290914F02892BD1F68091E800877F45
:104F30008093E8000E94D72980914C02809312014F
:104F40000C947F1480914A02813249F68091E800E6
:104F5000877F8093E8000E94D72980914D0280933B
:104F60003B02089580914A02813A09F0B8CF8091BE
:104F7000E800877F8093E8008091E80080FFFCCF05
:104F800080913B02C2CF84B7877F84BF0FB6F8946D
:104F9000A895809160008861809360001092600005
:104FA0000FBE80E880936100109261000E943A0F6A
:104FB0000E94252A0E94822A8091E20084608093C8
:104FC000E2008CE495E20E94111B78940E940A2D65
:104FD0000E94420F88E091E00E94860E86E99CE0E4
:104FE0000E949F0780914902853019F00E94720F3C
:104FF000F9CF82E99CE00E949F070E94691C809182
:105000004702882379F30E949A1C882359F30E944F
:105010007F28E8CF0C940C28292F33272330310523
:1050200079F158F421303105F1F02230310519F1D0
:1050300090E080E030E020E01AC021323105C9F173
:1050400022323105A9F76330710590F7FB01EE0FAD
:10505000FF1FEC5CFE4F208131816F5C7E4FFB01B6
:10506000808190E004C082E190E020E63DE0FA011A
:105070003183208308958BE590E025E03DE0F7CF74
:1050800099278130910579F040F08230910571F0D7
:10509000039771F6EBEBFCE002C0E1E0FDE08491E8
:1050A00090E09F01E4CFEFECFCE0F9CFE1ECFCE015
:1050B000F6CF6330710508F0BBCF660F771FFB0199
:1050C000E65CFE4F2081318189E090E0D0CF0895E9
:1050D000CF93C82F0E946728C0933C02CF910895B8
:1050E00080914902843011F081E0089582E00895B2
:1050F00080913C02811102C00C947028089580E1D7
:1051000089BD82E189BD09B400FEFDCF8091D80040
:105110008F7D8093D8008091E00082608093E000D2
:105120008091E00081FDFCCF0895AF92BF92CF92B5
:10513000DF92FF920F931F93CF93DF936C01EB01EC
:105140008A010E94F629F82E811123C0011511054C
:1051500039F0F80180819181C81BD90BC80ED91E86
:10516000B12CA12C2097A9F08091E80085FD22C0E8
:105170008091E8008E778093E80001151105A1F079
:10518000F80180819181A80EB91EB182A08285E0CC
:10519000F82E8F2DDF91CF911F910F91FF90DF900F
:1051A000CF90BF90AF9008950E94F6298823D1F246
:1051B000F82EEFCFF60181916F018093F1002197D6
:1051C000FFEFAF1ABF0ACECFFC0180915002909141
:1051D000510286179707A0F06115710529F4909187
:1051E000E8009E779093E80090E06115710551F416
:1051F000911108C08091E80082FF35C080E00895D9
:10520000BC01F2CF809149028823C9F18530C9F1F0
:105210008091E80083FD31C08091E80082FDEACFF3
:105220008091E80080FFE1CF2091F3008091F200AF
:10523000322F282F6115710519F02830310558F0EB
:1052400091E02830310509F090E02091E8002E77B8
:105250002093E800CACF81918093F10061507109D9
:105260002F5F3F4FE7CF80914902882341F085307F
:1052700041F08091E80083FFBDCF81E0089582E096
:10528000089583E00895FC018091500290915102AD
:1052900086179707A0F06115710529F48091E80041
:1052A0008E778093E80090E06115710551F49111BB
:1052B00008C08091E80082FF36C080E00895BC01FC
:1052C000F2CF809149028823D1F18530D1F18091CC
:1052D000E80083FD32C08091E80082FDEACF809132
:1052E000E80080FFE1CF2091F3008091F200322F9F
:1052F000282F6115710519F02830310558F091E01B
:105300002830310509F090E08091E8008E77809395
:10531000E800CACF84918093F10031966150710901
:105320002F5F3F4FE6CF80914902882341F08530BF
:1053300041F08091E80083FFBCCF81E0089582E0D6
:10534000089583E00895982F973028F08F70809308
:10535000E90081E008959093E900242F762F50E032
:10536000981731F07091EC002091ED005091F00011
:1053700021FD02C09F5FE8CF3091EB003E7F30936C
:10538000EB003091ED003D7F3093ED003091EB006C
:1053900031603093EB007093EC002093ED0050935C
:1053A000F0002091EE0027FDE5CF80E00895809188
:1053B0004A0287FF13C08091E80082FF06C08091F7
:1053C000E8008B778093E80004C080914902811146
:1053D000F2CF0895809149028823D9F38091E800A3
:1053E00080FFF8CF8091E8008E77ECCF2091E40029
:1053F0003091E50085E69091EC0090FF06C0909119
:10540000E80090FF06C080E008959091E80092FDCA
:10541000FACF90914902992391F0953091F09091B3
:10542000EB0095FD10C04091E4005091E500241779
:10543000350709F381509A01F1F684E0089582E07E
:10544000089583E0089581E008950E94932A0E94C0
:105450009B2AE0EEF0E0808181608083E8EDF0E05F
:1054600080818F77808319BCA7EDB0E08C918E7F0F
:105470008C9380818F7E80831092480208950F93D1
:105480001F93CF93DF930E94932A0E949B2AC8ED1B
:10549000D0E088818F77888388818068888388813D
:1054A0008F7D888319BC1092490210924502109298
:1054B00047021092460200EE10E0F80180818B7FD7
:1054C000808388818160888342E060E080E00E9480
:1054D000A329E1EEF0E080818E7F8083E2EEF0E0B0
:1054E000808181608083808188608083F8018081F1
:1054F0008E7F8083888180618883DF91CF911F9127
:105500000F910895E8EDF0E080818F7E8083E7EDD4
:10551000F0E080818160808384E082BF81E08093BD
:1055200048020C943F2AE8EDF0E080818E7F808372
:105530001092E20008951092DA001092E1000895AE
:105540001F920F920FB60F9211242F933F934F93F8
:105550005F936F937F938F939F93AF93BF93EF93DB
:10556000FF938091E10082FF0BC08091E20082FFF7
:1055700007C08091E1008B7F8093E1000E94B826F4
:105580008091DA0080FF19C08091D80080FF15C09B
:105590008091DA008E7F8093DA008091D90080FFBD
:1055A00094C080E189BD82E189BD09B400FEFDCFD0
:1055B00081E0809349020E9491268091E10080FF62
:1055C00019C08091E20080FF15C08091E2008E7FBB
:1055D0008093E2008091E20080618093E2008091FC
:1055E000D80080628093D80019BC85E0809349027E
:1055F0000E94AE268091E10084FF29C08091E200E4
:1056000084FF25C080E189BD82E189BD09B400FE27
:10561000FDCF8091D8008F7D8093D8008091E100EC
:105620008F7E8093E1008091E2008F7E8093E20084
:105630008091E20081608093E2008091450288239E
:1056400009F449C084E0809349020E94B226809107
:10565000E10083FF29C08091E20083FF25C0809193
:10566000E100877F8093E10082E0809349021092FD
:1056700045028091E1008E7F8093E1008091E200FD
:105680008E7F8093E2008091E20080618093E2004F
:1056900042E060E080E00E94A3298091F0008860F1
:1056A0008093F0000E94AA26FF91EF91BF91AF91E5
:1056B0009F918F917F916F915F914F913F912F912A
:1056C0000F900FBE0F901F90189519BC10924902B1
:1056D0000E94A32672CF8091E30087FD02C081E083
:1056E000B2CF83E0B0CF1F920F920FB60F9211246A
:1056F0002F933F934F935F936F937F938F939F93DA
:10570000AF93BF93CF93EF93FF93C091E900CF7016
:105710008091EC001092E9008091F000877F8093E7
:10572000F00078940E94AF2B1092E9008091F00075
:1057300088608093F000C093E900FF91EF91CF91D2
:10574000BF91AF919F918F917F916F915F914F9199
:105750003F912F910F900FBE0F901F9018951F93A0
:10576000CF93DF93CDB7DEB7AA970FB6F894DEBF1D
:105770000FBECDBFEAE4F2E08091F100819322E018
:10578000E235F207C9F70E9409278091E80083FFFC
:1057900044C080914A0290914B029A3008F03DC07B
:1057A000E92FF0E0EA52F44D0C94462DE02B062C44
:1057B0000D2C062C0D2C642C862C0D2CDD2CEA2CAB
:1057C000803889F0823849F580914E028F70873099
:1057D00020F58093E9008091EB0085FB882780F914
:1057E0001092E90006C08091460290914702911103
:1057F00082609091E800977F9093E8008093F10099
:105800001092F1008091E8008E772DC0282F2D7F17
:1058100021F48823D1F0823059F18091E80083FF90
:105820000AC08091E800877F8093E8008091EB00B8
:1058300080628093EB00AA960FB6F894DEBF0FBE8D
:10584000CDBFDF91CF911F91089580914C0281309F
:1058500021F7933009F080E0809347021092E9002D
:105860008091E800877F8093E8000E94D729D5CFF8
:1058700080914C028111F2CF80914E028F702FEFF8
:10588000280F263050F68093E9002091EB0020FF8E
:10589000E5CF933031F48091EB0080628093EB0090
:1058A000DDCF9091EB0090619093EB0021E030E030
:1058B00001C0220F8A95EAF72093EA001092EA00CD
:1058C0008091EB008860EACF8111A7CF10914C0244
:1058D0001F778091E3008078812B8093E300809193
:1058E000E800877F8093E8000E94D7298091E80034
:1058F00080FFFCCF8091E30080688093E30083E029
:10590000111101C082E08093490287CF8058823014
:1059100008F083CF80914C0290914D028C3D23E0A2
:105920009207A1F583E08A838AE289834FB7F894CE
:10593000DE01139620E03EE051E2E32FF0E05093C9
:105940005700E49120FF03C0E295EF703F5FEF70D6
:105950008E2F90E0EA30C0F0C7968D939D932F5F15
:10596000243159F74FBF8091E800877F8093E8008A
:105970006AE270E0CE0101960E94E4288091E8007E
:105980008B778093E80049CFC096E7CF60914E02B5
:1059900070914F02AE014F5F5F4F0E940A28BC0119
:1059A000892B09F43ACF9091E800977F9093E80013
:1059B00089819A810E944329E1CF803809F02DCF57
:1059C0008091E800877F8093E80080914502809372
:1059D000F10018CF811121CF90914C02923008F044
:1059E0001CCF8091E800877F8093E8009093450268
:1059F0000E94D72980914502882331F084E080936A
:105A000049020E94FA2609CF8091E30087FDF6CF74
:105A100081E0F5CFCF9380914902882399F0C0911E
:105A2000E900CF708091EC0080FD0EC080E0C82BB3
:105A30001092E9008091E80083FD0E94AF2BCF70A7
:105A4000C093E900CF91089580E8F1CF991B79E0E8
:105A500004C0991F961708F0961B881F7A95C9F7FE
:105A60008095089597FB072E16F4009407D077FDD4
:105A700009D00E944C2D07FC05D03EF490958195ED
:105A80009F4F0895709561957F4F0895EE0FFF1F0A
:105A90000590F491E02D0994AA1BBB1B51E107C0AE
:105AA000AA1FBB1FA617B70710F0A61BB70B881FAE
:105AB000991F5A95A9F780959095BC01CD0108953D
:105AC000F999FECF92BD81BDF89A992780B50895C6
:105AD000A8E1B0E042E050E00C94942D262FF99913
